{
	"Codes/array.sol": {
		"array": {
			"abi": [
				{
					"inputs": [
						{
							"internalType": "uint256",
							"name": "",
							"type": "uint256"
						}
					],
					"name": "arr",
					"outputs": [
						{
							"internalType": "uint256",
							"name": "",
							"type": "uint256"
						}
					],
					"stateMutability": "view",
					"type": "function"
				},
				{
					"inputs": [
						{
							"internalType": "uint256",
							"name": "index",
							"type": "uint256"
						},
						{
							"internalType": "uint256",
							"name": "value",
							"type": "uint256"
						}
					],
					"name": "setter",
					"outputs": [],
					"stateMutability": "nonpayable",
					"type": "function"
				}
			],
			"devdoc": {
				"kind": "dev",
				"methods": {},
				"version": 1
			},
			"evm": {
				"assembly": "    /* \"Codes/array.sol\":70:237  contract array... */\n  mstore(0x40, 0x80)\n    /* \"Codes/array.sol\":93:132  uint[4] public  arr = [10, 20, 30 , 40] */\n  mload(0x40)\n  dup1\n  0x80\n  add\n  0x40\n  mstore\n  dup1\n    /* \"Codes/array.sol\":116:118  10 */\n  0x0a\n    /* \"Codes/array.sol\":93:132  uint[4] public  arr = [10, 20, 30 , 40] */\n  0xff\n  and\n  dup2\n  mstore\n  0x20\n  add\n    /* \"Codes/array.sol\":120:122  20 */\n  0x14\n    /* \"Codes/array.sol\":93:132  uint[4] public  arr = [10, 20, 30 , 40] */\n  0xff\n  and\n  dup2\n  mstore\n  0x20\n  add\n    /* \"Codes/array.sol\":124:126  30 */\n  0x1e\n    /* \"Codes/array.sol\":93:132  uint[4] public  arr = [10, 20, 30 , 40] */\n  0xff\n  and\n  dup2\n  mstore\n  0x20\n  add\n    /* \"Codes/array.sol\":129:131  40 */\n  0x28\n    /* \"Codes/array.sol\":93:132  uint[4] public  arr = [10, 20, 30 , 40] */\n  0xff\n  and\n  dup2\n  mstore\n  pop\n  0x00\n  swap1\n  0x04\n  tag_1\n  swap3\n  swap2\n  swap1\n  tag_2\n  jump\t// in\ntag_1:\n  pop\n    /* \"Codes/array.sol\":70:237  contract array... */\n  callvalue\n  dup1\n  iszero\n  tag_3\n  jumpi\n  revert(0x00, 0x00)\ntag_3:\n  pop\n  jump(tag_4)\ntag_2:\n  dup3\n  0x04\n  dup2\n  add\n  swap3\n  dup3\n  iszero\n  tag_5\n  jumpi\n  swap2\n  0x20\n  mul\n  dup3\n  add\ntag_6:\n  dup3\n  dup2\n  gt\n  iszero\n  tag_7\n  jumpi\n  dup3\n  mload\n  dup3\n  swap1\n  0xff\n  and\n  swap1\n  sstore\n  swap2\n  0x20\n  add\n  swap2\n  swap1\n  0x01\n  add\n  swap1\n  jump(tag_6)\ntag_7:\ntag_5:\n  pop\n  swap1\n  pop\n  tag_8\n  swap2\n  swap1\n  tag_9\n  jump\t// in\ntag_8:\n  pop\n  swap1\n  jump\t// out\ntag_9:\ntag_10:\n  dup1\n  dup3\n  gt\n  iszero\n  tag_11\n  jumpi\n  0x00\n  dup2\n  0x00\n  swap1\n  sstore\n  pop\n  0x01\n  add\n  jump(tag_10)\ntag_11:\n  pop\n  swap1\n  jump\t// out\ntag_4:\n  dataSize(sub_0)\n  dup1\n  dataOffset(sub_0)\n  0x00\n  codecopy\n  0x00\n  return\nstop\n\nsub_0: assembly {\n        /* \"Codes/array.sol\":70:237  contract array... */\n      mstore(0x40, 0x80)\n      callvalue\n      dup1\n      iszero\n      tag_1\n      jumpi\n      revert(0x00, 0x00)\n    tag_1:\n      pop\n      jumpi(tag_2, lt(calldatasize, 0x04))\n      shr(0xe0, calldataload(0x00))\n      dup1\n      0x5298f36d\n      eq\n      tag_3\n      jumpi\n      dup1\n      0x71e5ee5f\n      eq\n      tag_4\n      jumpi\n    tag_2:\n      revert(0x00, 0x00)\n        /* \"Codes/array.sol\":141:234  function setter(uint index , uint value ) public ... */\n    tag_3:\n      tag_5\n      0x04\n      dup1\n      calldatasize\n      sub\n      dup2\n      add\n      swap1\n      tag_6\n      swap2\n      swap1\n      tag_7\n      jump\t// in\n    tag_6:\n      tag_8\n      jump\t// in\n    tag_5:\n      stop\n        /* \"Codes/array.sol\":93:132  uint[4] public  arr = [10, 20, 30 , 40] */\n    tag_4:\n      tag_9\n      0x04\n      dup1\n      calldatasize\n      sub\n      dup2\n      add\n      swap1\n      tag_10\n      swap2\n      swap1\n      tag_11\n      jump\t// in\n    tag_10:\n      tag_12\n      jump\t// in\n    tag_9:\n      mload(0x40)\n      tag_13\n      swap2\n      swap1\n      tag_14\n      jump\t// in\n    tag_13:\n      mload(0x40)\n      dup1\n      swap2\n      sub\n      swap1\n      return\n        /* \"Codes/array.sol\":141:234  function setter(uint index , uint value ) public ... */\n    tag_8:\n        /* \"Codes/array.sol\":220:225  value */\n      dup1\n        /* \"Codes/array.sol\":207:210  arr */\n      0x00\n        /* \"Codes/array.sol\":211:216  index */\n      dup4\n        /* \"Codes/array.sol\":207:217  arr[index] */\n      0x04\n      dup2\n      lt\n      tag_16\n      jumpi\n      tag_17\n      tag_18\n      jump\t// in\n    tag_17:\n    tag_16:\n      add\n        /* \"Codes/array.sol\":207:225  arr[index] = value */\n      dup2\n      swap1\n      sstore\n      pop\n        /* \"Codes/array.sol\":141:234  function setter(uint index , uint value ) public ... */\n      pop\n      pop\n      jump\t// out\n        /* \"Codes/array.sol\":93:132  uint[4] public  arr = [10, 20, 30 , 40] */\n    tag_12:\n      0x00\n      dup2\n      0x04\n      dup2\n      lt\n      tag_20\n      jumpi\n      0x00\n      dup1\n      revert\n    tag_20:\n      add\n      0x00\n      swap2\n      pop\n      swap1\n      pop\n      sload\n      dup2\n      jump\t// out\n        /* \"#utility.yul\":88:205   */\n    tag_23:\n        /* \"#utility.yul\":197:198   */\n      0x00\n        /* \"#utility.yul\":194:195   */\n      0x00\n        /* \"#utility.yul\":187:199   */\n      revert\n        /* \"#utility.yul\":334:411   */\n    tag_25:\n        /* \"#utility.yul\":371:378   */\n      0x00\n        /* \"#utility.yul\":400:405   */\n      dup2\n        /* \"#utility.yul\":389:405   */\n      swap1\n      pop\n        /* \"#utility.yul\":334:411   */\n      swap2\n      swap1\n      pop\n      jump\t// out\n        /* \"#utility.yul\":417:539   */\n    tag_26:\n        /* \"#utility.yul\":490:514   */\n      tag_35\n        /* \"#utility.yul\":508:513   */\n      dup2\n        /* \"#utility.yul\":490:514   */\n      tag_25\n      jump\t// in\n    tag_35:\n        /* \"#utility.yul\":483:488   */\n      dup2\n        /* \"#utility.yul\":480:515   */\n      eq\n        /* \"#utility.yul\":470:533   */\n      tag_36\n      jumpi\n        /* \"#utility.yul\":529:530   */\n      0x00\n        /* \"#utility.yul\":526:527   */\n      0x00\n        /* \"#utility.yul\":519:531   */\n      revert\n        /* \"#utility.yul\":470:533   */\n    tag_36:\n        /* \"#utility.yul\":417:539   */\n      pop\n      jump\t// out\n        /* \"#utility.yul\":545:684   */\n    tag_27:\n        /* \"#utility.yul\":591:596   */\n      0x00\n        /* \"#utility.yul\":629:635   */\n      dup2\n        /* \"#utility.yul\":616:636   */\n      calldataload\n        /* \"#utility.yul\":607:636   */\n      swap1\n      pop\n        /* \"#utility.yul\":645:678   */\n      tag_38\n        /* \"#utility.yul\":672:677   */\n      dup2\n        /* \"#utility.yul\":645:678   */\n      tag_26\n      jump\t// in\n    tag_38:\n        /* \"#utility.yul\":545:684   */\n      swap3\n      swap2\n      pop\n      pop\n      jump\t// out\n        /* \"#utility.yul\":690:1164   */\n    tag_7:\n        /* \"#utility.yul\":758:764   */\n      0x00\n        /* \"#utility.yul\":766:772   */\n      0x00\n        /* \"#utility.yul\":815:817   */\n      0x40\n        /* \"#utility.yul\":803:812   */\n      dup4\n        /* \"#utility.yul\":794:801   */\n      dup6\n        /* \"#utility.yul\":790:813   */\n      sub\n        /* \"#utility.yul\":786:818   */\n      slt\n        /* \"#utility.yul\":783:902   */\n      iszero\n      tag_40\n      jumpi\n        /* \"#utility.yul\":821:900   */\n      tag_41\n      tag_23\n      jump\t// in\n    tag_41:\n        /* \"#utility.yul\":783:902   */\n    tag_40:\n        /* \"#utility.yul\":941:942   */\n      0x00\n        /* \"#utility.yul\":966:1019   */\n      tag_42\n        /* \"#utility.yul\":1011:1018   */\n      dup6\n        /* \"#utility.yul\":1002:1008   */\n      dup3\n        /* \"#utility.yul\":991:1000   */\n      dup7\n        /* \"#utility.yul\":987:1009   */\n      add\n        /* \"#utility.yul\":966:1019   */\n      tag_27\n      jump\t// in\n    tag_42:\n        /* \"#utility.yul\":956:1019   */\n      swap3\n      pop\n        /* \"#utility.yul\":912:1029   */\n      pop\n        /* \"#utility.yul\":1068:1070   */\n      0x20\n        /* \"#utility.yul\":1094:1147   */\n      tag_43\n        /* \"#utility.yul\":1139:1146   */\n      dup6\n        /* \"#utility.yul\":1130:1136   */\n      dup3\n        /* \"#utility.yul\":1119:1128   */\n      dup7\n        /* \"#utility.yul\":1115:1137   */\n      add\n        /* \"#utility.yul\":1094:1147   */\n      tag_27\n      jump\t// in\n    tag_43:\n        /* \"#utility.yul\":1084:1147   */\n      swap2\n      pop\n        /* \"#utility.yul\":1039:1157   */\n      pop\n        /* \"#utility.yul\":690:1164   */\n      swap3\n      pop\n      swap3\n      swap1\n      pop\n      jump\t// out\n        /* \"#utility.yul\":1170:1499   */\n    tag_11:\n        /* \"#utility.yul\":1229:1235   */\n      0x00\n        /* \"#utility.yul\":1278:1280   */\n      0x20\n        /* \"#utility.yul\":1266:1275   */\n      dup3\n        /* \"#utility.yul\":1257:1264   */\n      dup5\n        /* \"#utility.yul\":1253:1276   */\n      sub\n        /* \"#utility.yul\":1249:1281   */\n      slt\n        /* \"#utility.yul\":1246:1365   */\n      iszero\n      tag_45\n      jumpi\n        /* \"#utility.yul\":1284:1363   */\n      tag_46\n      tag_23\n      jump\t// in\n    tag_46:\n        /* \"#utility.yul\":1246:1365   */\n    tag_45:\n        /* \"#utility.yul\":1404:1405   */\n      0x00\n        /* \"#utility.yul\":1429:1482   */\n      tag_47\n        /* \"#utility.yul\":1474:1481   */\n      dup5\n        /* \"#utility.yul\":1465:1471   */\n      dup3\n        /* \"#utility.yul\":1454:1463   */\n      dup6\n        /* \"#utility.yul\":1450:1472   */\n      add\n        /* \"#utility.yul\":1429:1482   */\n      tag_27\n      jump\t// in\n    tag_47:\n        /* \"#utility.yul\":1419:1482   */\n      swap2\n      pop\n        /* \"#utility.yul\":1375:1492   */\n      pop\n        /* \"#utility.yul\":1170:1499   */\n      swap3\n      swap2\n      pop\n      pop\n      jump\t// out\n        /* \"#utility.yul\":1505:1623   */\n    tag_28:\n        /* \"#utility.yul\":1592:1616   */\n      tag_49\n        /* \"#utility.yul\":1610:1615   */\n      dup2\n        /* \"#utility.yul\":1592:1616   */\n      tag_25\n      jump\t// in\n    tag_49:\n        /* \"#utility.yul\":1587:1590   */\n      dup3\n        /* \"#utility.yul\":1580:1617   */\n      mstore\n        /* \"#utility.yul\":1505:1623   */\n      pop\n      pop\n      jump\t// out\n        /* \"#utility.yul\":1629:1851   */\n    tag_14:\n        /* \"#utility.yul\":1722:1726   */\n      0x00\n        /* \"#utility.yul\":1760:1762   */\n      0x20\n        /* \"#utility.yul\":1749:1758   */\n      dup3\n        /* \"#utility.yul\":1745:1763   */\n      add\n        /* \"#utility.yul\":1737:1763   */\n      swap1\n      pop\n        /* \"#utility.yul\":1773:1844   */\n      tag_51\n        /* \"#utility.yul\":1841:1842   */\n      0x00\n        /* \"#utility.yul\":1830:1839   */\n      dup4\n        /* \"#utility.yul\":1826:1843   */\n      add\n        /* \"#utility.yul\":1817:1823   */\n      dup5\n        /* \"#utility.yul\":1773:1844   */\n      tag_28\n      jump\t// in\n    tag_51:\n        /* \"#utility.yul\":1629:1851   */\n      swap3\n      swap2\n      pop\n      pop\n      jump\t// out\n        /* \"#utility.yul\":1857:2037   */\n    tag_18:\n        /* \"#utility.yul\":1905:1982   */\n      0x4e487b7100000000000000000000000000000000000000000000000000000000\n        /* \"#utility.yul\":1902:1903   */\n      0x00\n        /* \"#utility.yul\":1895:1983   */\n      mstore\n        /* \"#utility.yul\":2002:2006   */\n      0x32\n        /* \"#utility.yul\":1999:2000   */\n      0x04\n        /* \"#utility.yul\":1992:2007   */\n      mstore\n        /* \"#utility.yul\":2026:2030   */\n      0x24\n        /* \"#utility.yul\":2023:2024   */\n      0x00\n        /* \"#utility.yul\":2016:2031   */\n      revert\n\n    auxdata: 0xa2646970667358221220f1874611715046b3b8638f886025f0cce204325974726c9a2a5757f5aa7f64f464736f6c634300081e0033\n}\n",
				"bytecode": {
					"linkReferences": {},
					"object": "60806040526040518060800160405280600a60ff168152602001601460ff168152602001601e60ff168152602001602860ff168152505f90600460429291906052565b50348015604d575f5ffd5b5060ab565b82600481019282156083579160200282015b828111156082578251829060ff169055916020019190600101906064565b5b509050608e91906092565b5090565b5b8082111560a7575f815f9055506001016093565b5090565b6101e4806100b85f395ff3fe608060405234801561000f575f5ffd5b5060043610610034575f3560e01c80635298f36d1461003857806371e5ee5f14610054575b5f5ffd5b610052600480360381019061004d91906100f0565b610084565b005b61006e6004803603810190610069919061012e565b6100a1565b60405161007b9190610168565b60405180910390f35b805f836004811061009857610097610181565b5b01819055505050565b5f81600481106100af575f80fd5b015f915090505481565b5f5ffd5b5f819050919050565b6100cf816100bd565b81146100d9575f5ffd5b50565b5f813590506100ea816100c6565b92915050565b5f5f60408385031215610106576101056100b9565b5b5f610113858286016100dc565b9250506020610124858286016100dc565b9150509250929050565b5f60208284031215610143576101426100b9565b5b5f610150848285016100dc565b91505092915050565b610162816100bd565b82525050565b5f60208201905061017b5f830184610159565b92915050565b7f4e487b71000000000000000000000000000000000000000000000000000000005f52603260045260245ffdfea2646970667358221220f1874611715046b3b8638f886025f0cce204325974726c9a2a5757f5aa7f64f464736f6c634300081e0033",
					"opcodes": "PUSH1 0x80 PUSH1 0x40 MSTORE PUSH1 0x40 MLOAD DUP1 PUSH1 0x80 ADD PUSH1 0x40 MSTORE DUP1 PUSH1 0xA PUSH1 0xFF AND DUP2 MSTORE PUSH1 0x20 ADD PUSH1 0x14 PUSH1 0xFF AND DUP2 MSTORE PUSH1 0x20 ADD PUSH1 0x1E PUSH1 0xFF AND DUP2 MSTORE PUSH1 0x20 ADD PUSH1 0x28 PUSH1 0xFF AND DUP2 MSTORE POP PUSH0 SWAP1 PUSH1 0x4 PUSH1 0x42 SWAP3 SWAP2 SWAP1 PUSH1 0x52 JUMP JUMPDEST POP CALLVALUE DUP1 ISZERO PUSH1 0x4D JUMPI PUSH0 PUSH0 REVERT JUMPDEST POP PUSH1 0xAB JUMP JUMPDEST DUP3 PUSH1 0x4 DUP2 ADD SWAP3 DUP3 ISZERO PUSH1 0x83 JUMPI SWAP2 PUSH1 0x20 MUL DUP3 ADD JUMPDEST DUP3 DUP2 GT ISZERO PUSH1 0x82 JUMPI DUP3 MLOAD DUP3 SWAP1 PUSH1 0xFF AND SWAP1 SSTORE SWAP2 PUSH1 0x20 ADD SWAP2 SWAP1 PUSH1 0x1 ADD SWAP1 PUSH1 0x64 JUMP JUMPDEST JUMPDEST POP SWAP1 POP PUSH1 0x8E SWAP2 SWAP1 PUSH1 0x92 JUMP JUMPDEST POP SWAP1 JUMP JUMPDEST JUMPDEST DUP1 DUP3 GT ISZERO PUSH1 0xA7 JUMPI PUSH0 DUP2 PUSH0 SWAP1 SSTORE POP PUSH1 0x1 ADD PUSH1 0x93 JUMP JUMPDEST POP SWAP1 JUMP JUMPDEST PUSH2 0x1E4 DUP1 PUSH2 0xB8 PUSH0 CODECOPY PUSH0 RETURN INVALID PUSH1 0x80 PUSH1 0x40 MSTORE CALLVALUE DUP1 ISZERO PUSH2 0xF JUMPI PUSH0 PUSH0 REVERT JUMPDEST POP PUSH1 0x4 CALLDATASIZE LT PUSH2 0x34 JUMPI PUSH0 CALLDATALOAD PUSH1 0xE0 SHR DUP1 PUSH4 0x5298F36D EQ PUSH2 0x38 JUMPI DUP1 PUSH4 0x71E5EE5F EQ PUSH2 0x54 JUMPI JUMPDEST PUSH0 PUSH0 REVERT JUMPDEST PUSH2 0x52 PUSH1 0x4 DUP1 CALLDATASIZE SUB DUP2 ADD SWAP1 PUSH2 0x4D SWAP2 SWAP1 PUSH2 0xF0 JUMP JUMPDEST PUSH2 0x84 JUMP JUMPDEST STOP JUMPDEST PUSH2 0x6E PUSH1 0x4 DUP1 CALLDATASIZE SUB DUP2 ADD SWAP1 PUSH2 0x69 SWAP2 SWAP1 PUSH2 0x12E JUMP JUMPDEST PUSH2 0xA1 JUMP JUMPDEST PUSH1 0x40 MLOAD PUSH2 0x7B SWAP2 SWAP1 PUSH2 0x168 JUMP JUMPDEST PUSH1 0x40 MLOAD DUP1 SWAP2 SUB SWAP1 RETURN JUMPDEST DUP1 PUSH0 DUP4 PUSH1 0x4 DUP2 LT PUSH2 0x98 JUMPI PUSH2 0x97 PUSH2 0x181 JUMP JUMPDEST JUMPDEST ADD DUP2 SWAP1 SSTORE POP POP POP JUMP JUMPDEST PUSH0 DUP2 PUSH1 0x4 DUP2 LT PUSH2 0xAF JUMPI PUSH0 DUP1 REVERT JUMPDEST ADD PUSH0 SWAP2 POP SWAP1 POP SLOAD DUP2 JUMP JUMPDEST PUSH0 PUSH0 REVERT JUMPDEST PUSH0 DUP2 SWAP1 POP SWAP2 SWAP1 POP JUMP JUMPDEST PUSH2 0xCF DUP2 PUSH2 0xBD JUMP JUMPDEST DUP2 EQ PUSH2 0xD9 JUMPI PUSH0 PUSH0 REVERT JUMPDEST POP JUMP JUMPDEST PUSH0 DUP2 CALLDATALOAD SWAP1 POP PUSH2 0xEA DUP2 PUSH2 0xC6 JUMP JUMPDEST SWAP3 SWAP2 POP POP JUMP JUMPDEST PUSH0 PUSH0 PUSH1 0x40 DUP4 DUP6 SUB SLT ISZERO PUSH2 0x106 JUMPI PUSH2 0x105 PUSH2 0xB9 JUMP JUMPDEST JUMPDEST PUSH0 PUSH2 0x113 DUP6 DUP3 DUP7 ADD PUSH2 0xDC JUMP JUMPDEST SWAP3 POP POP PUSH1 0x20 PUSH2 0x124 DUP6 DUP3 DUP7 ADD PUSH2 0xDC JUMP JUMPDEST SWAP2 POP POP SWAP3 POP SWAP3 SWAP1 POP JUMP JUMPDEST PUSH0 PUSH1 0x20 DUP3 DUP5 SUB SLT ISZERO PUSH2 0x143 JUMPI PUSH2 0x142 PUSH2 0xB9 JUMP JUMPDEST JUMPDEST PUSH0 PUSH2 0x150 DUP5 DUP3 DUP6 ADD PUSH2 0xDC JUMP JUMPDEST SWAP2 POP POP SWAP3 SWAP2 POP POP JUMP JUMPDEST PUSH2 0x162 DUP2 PUSH2 0xBD JUMP JUMPDEST DUP3 MSTORE POP POP JUMP JUMPDEST PUSH0 PUSH1 0x20 DUP3 ADD SWAP1 POP PUSH2 0x17B PUSH0 DUP4 ADD DUP5 PUSH2 0x159 JUMP JUMPDEST SWAP3 SWAP2 POP POP JUMP JUMPDEST PUSH32 0x4E487B7100000000000000000000000000000000000000000000000000000000 PUSH0 MSTORE PUSH1 0x32 PUSH1 0x4 MSTORE PUSH1 0x24 PUSH0 REVERT INVALID LOG2 PUSH5 0x6970667358 0x22 SLT KECCAK256 CALL DUP8 CHAINID GT PUSH18 0x5046B3B8638F886025F0CCE204325974726C SWAP11 0x2A JUMPI JUMPI CREATE2 0xAA PUSH32 0x64F464736F6C634300081E003300000000000000000000000000000000000000 "
				},
				"gasEstimates": {
					"creation": {
						"codeDepositCost": "96800",
						"executionCost": "infinite",
						"totalCost": "infinite"
					},
					"external": {
						"arr(uint256)": "infinite",
						"setter(uint256,uint256)": "infinite"
					}
				},
				"methodIdentifiers": {
					"arr(uint256)": "71e5ee5f",
					"setter(uint256,uint256)": "5298f36d"
				}
			},
			"storageLayout": {
				"storage": [
					{
						"astId": 10,
						"contract": "Codes/array.sol:array",
						"label": "arr",
						"offset": 0,
						"slot": "0",
						"type": "t_array(t_uint256)4_storage"
					}
				],
				"types": {
					"t_array(t_uint256)4_storage": {
						"base": "t_uint256",
						"encoding": "inplace",
						"label": "uint256[4]",
						"numberOfBytes": "128"
					},
					"t_uint256": {
						"encoding": "inplace",
						"label": "uint256",
						"numberOfBytes": "32"
					}
				}
			},
			"userdoc": {
				"kind": "user",
				"methods": {},
				"version": 1
			}
		}
	}
}