{
	"Codes/local.sol": {
		"Local": {
			"abi": [
				{
					"inputs": [],
					"name": "store",
					"outputs": [
						{
							"internalType": "uint256",
							"name": "",
							"type": "uint256"
						}
					],
					"stateMutability": "pure",
					"type": "function"
				}
			],
			"devdoc": {
				"kind": "dev",
				"methods": {},
				"version": 1
			},
			"evm": {
				"assembly": "    /* \"Codes/local.sol\":71:588  contract Local... */\n  mstore(0x40, 0x80)\n  callvalue\n  dup1\n  iszero\n  tag_1\n  jumpi\n  revert(0x00, 0x00)\ntag_1:\n  pop\n  dataSize(sub_0)\n  dup1\n  dataOffset(sub_0)\n  0x00\n  codecopy\n  0x00\n  return\nstop\n\nsub_0: assembly {\n        /* \"Codes/local.sol\":71:588  contract Local... */\n      mstore(0x40, 0x80)\n      callvalue\n      dup1\n      iszero\n      tag_1\n      jumpi\n      revert(0x00, 0x00)\n    tag_1:\n      pop\n      jumpi(tag_2, lt(calldatasize, 0x04))\n      shr(0xe0, calldataload(0x00))\n      dup1\n      0x975057e7\n      eq\n      tag_3\n      jumpi\n    tag_2:\n      revert(0x00, 0x00)\n        /* \"Codes/local.sol\":405:581  function store() pure public returns(uint)... */\n    tag_3:\n      tag_4\n      tag_5\n      jump\t// in\n    tag_4:\n      mload(0x40)\n      tag_6\n      swap2\n      swap1\n      tag_7\n      jump\t// in\n    tag_6:\n      mload(0x40)\n      dup1\n      swap2\n      sub\n      swap1\n      return\n    tag_5:\n        /* \"Codes/local.sol\":442:446  uint */\n      0x00\n        /* \"Codes/local.sol\":537:545  uint age */\n      0x00\n        /* \"Codes/local.sol\":548:550  20 */\n      0x14\n        /* \"Codes/local.sol\":537:550  uint age = 20 */\n      swap1\n      pop\n        /* \"Codes/local.sol\":569:572  age */\n      dup1\n        /* \"Codes/local.sol\":561:572  return  age */\n      swap2\n      pop\n      pop\n        /* \"Codes/local.sol\":405:581  function store() pure public returns(uint)... */\n      swap1\n      jump\t// out\n        /* \"#utility.yul\":7:84   */\n    tag_9:\n        /* \"#utility.yul\":44:51   */\n      0x00\n        /* \"#utility.yul\":73:78   */\n      dup2\n        /* \"#utility.yul\":62:78   */\n      swap1\n      pop\n        /* \"#utility.yul\":7:84   */\n      swap2\n      swap1\n      pop\n      jump\t// out\n        /* \"#utility.yul\":90:208   */\n    tag_10:\n        /* \"#utility.yul\":177:201   */\n      tag_14\n        /* \"#utility.yul\":195:200   */\n      dup2\n        /* \"#utility.yul\":177:201   */\n      tag_9\n      jump\t// in\n    tag_14:\n        /* \"#utility.yul\":172:175   */\n      dup3\n        /* \"#utility.yul\":165:202   */\n      mstore\n        /* \"#utility.yul\":90:208   */\n      pop\n      pop\n      jump\t// out\n        /* \"#utility.yul\":214:436   */\n    tag_7:\n        /* \"#utility.yul\":307:311   */\n      0x00\n        /* \"#utility.yul\":345:347   */\n      0x20\n        /* \"#utility.yul\":334:343   */\n      dup3\n        /* \"#utility.yul\":330:348   */\n      add\n        /* \"#utility.yul\":322:348   */\n      swap1\n      pop\n        /* \"#utility.yul\":358:429   */\n      tag_16\n        /* \"#utility.yul\":426:427   */\n      0x00\n        /* \"#utility.yul\":415:424   */\n      dup4\n        /* \"#utility.yul\":411:428   */\n      add\n        /* \"#utility.yul\":402:408   */\n      dup5\n        /* \"#utility.yul\":358:429   */\n      tag_10\n      jump\t// in\n    tag_16:\n        /* \"#utility.yul\":214:436   */\n      swap3\n      swap2\n      pop\n      pop\n      jump\t// out\n\n    auxdata: 0xa2646970667358221220c4135f769eca358adc5e25c84122143055f480d269f4f6748147f35e580a57e564736f6c634300081e0033\n}\n",
				"bytecode": {
					"linkReferences": {},
					"object": "6080604052348015600e575f5ffd5b5060b480601a5f395ff3fe6080604052348015600e575f5ffd5b50600436106026575f3560e01c8063975057e714602a575b5f5ffd5b60306044565b604051603b91906067565b60405180910390f35b5f5f601490508091505090565b5f819050919050565b6061816051565b82525050565b5f60208201905060785f830184605a565b9291505056fea2646970667358221220c4135f769eca358adc5e25c84122143055f480d269f4f6748147f35e580a57e564736f6c634300081e0033",
					"opcodes": "PUSH1 0x80 PUSH1 0x40 MSTORE CALLVALUE DUP1 ISZERO PUSH1 0xE JUMPI PUSH0 PUSH0 REVERT JUMPDEST POP PUSH1 0xB4 DUP1 PUSH1 0x1A PUSH0 CODECOPY PUSH0 RETURN INVALID PUSH1 0x80 PUSH1 0x40 MSTORE CALLVALUE DUP1 ISZERO PUSH1 0xE JUMPI PUSH0 PUSH0 REVERT JUMPDEST POP PUSH1 0x4 CALLDATASIZE LT PUSH1 0x26 JUMPI PUSH0 CALLDATALOAD PUSH1 0xE0 SHR DUP1 PUSH4 0x975057E7 EQ PUSH1 0x2A JUMPI JUMPDEST PUSH0 PUSH0 REVERT JUMPDEST PUSH1 0x30 PUSH1 0x44 JUMP JUMPDEST PUSH1 0x40 MLOAD PUSH1 0x3B SWAP2 SWAP1 PUSH1 0x67 JUMP JUMPDEST PUSH1 0x40 MLOAD DUP1 SWAP2 SUB SWAP1 RETURN JUMPDEST PUSH0 PUSH0 PUSH1 0x14 SWAP1 POP DUP1 SWAP2 POP POP SWAP1 JUMP JUMPDEST PUSH0 DUP2 SWAP1 POP SWAP2 SWAP1 POP JUMP JUMPDEST PUSH1 0x61 DUP2 PUSH1 0x51 JUMP JUMPDEST DUP3 MSTORE POP POP JUMP JUMPDEST PUSH0 PUSH1 0x20 DUP3 ADD SWAP1 POP PUSH1 0x78 PUSH0 DUP4 ADD DUP5 PUSH1 0x5A JUMP JUMPDEST SWAP3 SWAP2 POP POP JUMP INVALID LOG2 PUSH5 0x6970667358 0x22 SLT KECCAK256 0xC4 SGT PUSH0 PUSH23 0x9ECA358ADC5E25C84122143055F480D269F4F6748147F3 MCOPY PC EXP JUMPI JUMPF 0x6473 PUSH16 0x6C634300081E00330000000000000000 "
				},
				"gasEstimates": {
					"creation": {
						"codeDepositCost": "36000",
						"executionCost": "85",
						"totalCost": "36085"
					},
					"external": {
						"store()": "322"
					}
				},
				"methodIdentifiers": {
					"store()": "975057e7"
				}
			},
			"storageLayout": {
				"storage": [],
				"types": null
			},
			"userdoc": {
				"kind": "user",
				"methods": {},
				"version": 1
			}
		}
	}
}