{
	"Codes/Lottery.sol": {
		"Lottery": {
			"abi": [
				{
					"inputs": [],
					"stateMutability": "nonpayable",
					"type": "constructor"
				},
				{
					"inputs": [],
					"name": "getBalance",
					"outputs": [
						{
							"internalType": "uint256",
							"name": "",
							"type": "uint256"
						}
					],
					"stateMutability": "view",
					"type": "function"
				},
				{
					"inputs": [],
					"name": "getPlayers",
					"outputs": [
						{
							"internalType": "address payable[]",
							"name": "",
							"type": "address[]"
						}
					],
					"stateMutability": "view",
					"type": "function"
				},
				{
					"inputs": [],
					"name": "manager",
					"outputs": [
						{
							"internalType": "address",
							"name": "",
							"type": "address"
						}
					],
					"stateMutability": "view",
					"type": "function"
				},
				{
					"inputs": [
						{
							"internalType": "uint256",
							"name": "",
							"type": "uint256"
						}
					],
					"name": "participants",
					"outputs": [
						{
							"internalType": "address payable",
							"name": "",
							"type": "address"
						}
					],
					"stateMutability": "view",
					"type": "function"
				},
				{
					"inputs": [],
					"name": "random",
					"outputs": [
						{
							"internalType": "uint256",
							"name": "",
							"type": "uint256"
						}
					],
					"stateMutability": "view",
					"type": "function"
				},
				{
					"inputs": [],
					"name": "selectWinner",
					"outputs": [],
					"stateMutability": "nonpayable",
					"type": "function"
				},
				{
					"stateMutability": "payable",
					"type": "receive"
				}
			],
			"devdoc": {
				"kind": "dev",
				"methods": {},
				"version": 1
			},
			"evm": {
				"assembly": "    /* \"Codes/Lottery.sol\":60:1174  contract Lottery... */\n  mstore(0x40, 0x80)\n    /* \"Codes/Lottery.sol\":160:233  constructor(){... */\n  callvalue\n  dup1\n  iszero\n  tag_1\n  jumpi\n  revert(0x00, 0x00)\ntag_1:\n  pop\n    /* \"Codes/Lottery.sol\":194:204  msg.sender */\n  caller\n    /* \"Codes/Lottery.sol\":184:191  manager */\n  0x00\n  0x00\n    /* \"Codes/Lottery.sol\":184:204  manager = msg.sender */\n  0x0100\n  exp\n  dup2\n  sload\n  dup2\n  0xffffffffffffffffffffffffffffffffffffffff\n  mul\n  not\n  and\n  swap1\n  dup4\n  0xffffffffffffffffffffffffffffffffffffffff\n  and\n  mul\n  or\n  swap1\n  sstore\n  pop\n    /* \"Codes/Lottery.sol\":60:1174  contract Lottery... */\n  dataSize(sub_0)\n  dup1\n  dataOffset(sub_0)\n  0x00\n  codecopy\n  0x00\n  return\nstop\n\nsub_0: assembly {\n        /* \"Codes/Lottery.sol\":60:1174  contract Lottery... */\n      mstore(0x40, 0x80)\n      jumpi(tag_1, lt(calldatasize, 0x04))\n      shr(0xe0, calldataload(0x00))\n      dup1\n      0x12065fe0\n      eq\n      tag_3\n      jumpi\n      dup1\n      0x33a99e04\n      eq\n      tag_4\n      jumpi\n      dup1\n      0x35c1d349\n      eq\n      tag_5\n      jumpi\n      dup1\n      0x481c6a75\n      eq\n      tag_6\n      jumpi\n      dup1\n      0x5ec01e4d\n      eq\n      tag_7\n      jumpi\n      dup1\n      0x8b5b9ccc\n      eq\n      tag_8\n      jumpi\n      jump(tag_2)\n    tag_1:\n      jumpi(tag_2, calldatasize)\n        /* \"Codes/Lottery.sol\":300:307  1 ether */\n      0x0de0b6b3a7640000\n        /* \"Codes/Lottery.sol\":287:296  msg.value */\n      callvalue\n        /* \"Codes/Lottery.sol\":287:307  msg.value == 1 ether */\n      eq\n        /* \"Codes/Lottery.sol\":279:308  require(msg.value == 1 ether) */\n      tag_11\n      jumpi\n      revert(0x00, 0x00)\n    tag_11:\n        /* \"Codes/Lottery.sol\":319:331  participants */\n      0x01\n        /* \"Codes/Lottery.sol\":345:355  msg.sender */\n      caller\n        /* \"Codes/Lottery.sol\":319:357  participants.push(payable(msg.sender)) */\n      swap1\n      dup1\n      0x01\n      dup2\n      sload\n      add\n      dup1\n      dup3\n      sstore\n      dup1\n      swap2\n      pop\n      pop\n      0x01\n      swap1\n      sub\n      swap1\n      0x00\n      mstore\n      keccak256(0x00, 0x20)\n      add\n      0x00\n      swap1\n      swap2\n      swap1\n      swap2\n      swap1\n      swap2\n      0x0100\n      exp\n      dup2\n      sload\n      dup2\n      0xffffffffffffffffffffffffffffffffffffffff\n      mul\n      not\n      and\n      swap1\n      dup4\n      0xffffffffffffffffffffffffffffffffffffffff\n      and\n      mul\n      or\n      swap1\n      sstore\n      stop\n        /* \"Codes/Lottery.sol\":60:1174  contract Lottery... */\n    tag_2:\n      revert(0x00, 0x00)\n        /* \"Codes/Lottery.sol\":373:509  function getBalance() public view returns (uint){... */\n    tag_3:\n      callvalue\n      dup1\n      iszero\n      tag_13\n      jumpi\n      revert(0x00, 0x00)\n    tag_13:\n      pop\n      tag_14\n      tag_15\n      jump\t// in\n    tag_14:\n      mload(0x40)\n      tag_16\n      swap2\n      swap1\n      tag_17\n      jump\t// in\n    tag_16:\n      mload(0x40)\n      dup1\n      swap2\n      sub\n      swap1\n      return\n        /* \"Codes/Lottery.sol\":689:1057  function selectWinner() public {... */\n    tag_4:\n      callvalue\n      dup1\n      iszero\n      tag_18\n      jumpi\n      revert(0x00, 0x00)\n    tag_18:\n      pop\n      tag_19\n      tag_20\n      jump\t// in\n    tag_19:\n      stop\n        /* \"Codes/Lottery.sol\":114:151  address payable[] public participants */\n    tag_5:\n      callvalue\n      dup1\n      iszero\n      tag_21\n      jumpi\n      revert(0x00, 0x00)\n    tag_21:\n      pop\n      tag_22\n      0x04\n      dup1\n      calldatasize\n      sub\n      dup2\n      add\n      swap1\n      tag_23\n      swap2\n      swap1\n      tag_24\n      jump\t// in\n    tag_23:\n      tag_25\n      jump\t// in\n    tag_22:\n      mload(0x40)\n      tag_26\n      swap2\n      swap1\n      tag_27\n      jump\t// in\n    tag_26:\n      mload(0x40)\n      dup1\n      swap2\n      sub\n      swap1\n      return\n        /* \"Codes/Lottery.sol\":85:107  address public manager */\n    tag_6:\n      callvalue\n      dup1\n      iszero\n      tag_28\n      jumpi\n      revert(0x00, 0x00)\n    tag_28:\n      pop\n      tag_29\n      tag_30\n      jump\t// in\n    tag_29:\n      mload(0x40)\n      tag_31\n      swap2\n      swap1\n      tag_32\n      jump\t// in\n    tag_31:\n      mload(0x40)\n      dup1\n      swap2\n      sub\n      swap1\n      return\n        /* \"Codes/Lottery.sol\":521:681  function random() public view  returns (uint){... */\n    tag_7:\n      callvalue\n      dup1\n      iszero\n      tag_33\n      jumpi\n      revert(0x00, 0x00)\n    tag_33:\n      pop\n      tag_34\n      tag_35\n      jump\t// in\n    tag_34:\n      mload(0x40)\n      tag_36\n      swap2\n      swap1\n      tag_17\n      jump\t// in\n    tag_36:\n      mload(0x40)\n      dup1\n      swap2\n      sub\n      swap1\n      return\n        /* \"Codes/Lottery.sol\":1065:1171  function getPlayers() public view returns(address payable[] memory) {... */\n    tag_8:\n      callvalue\n      dup1\n      iszero\n      tag_37\n      jumpi\n      revert(0x00, 0x00)\n    tag_37:\n      pop\n      tag_38\n      tag_39\n      jump\t// in\n    tag_38:\n      mload(0x40)\n      tag_40\n      swap2\n      swap1\n      tag_41\n      jump\t// in\n    tag_40:\n      mload(0x40)\n      dup1\n      swap2\n      sub\n      swap1\n      return\n        /* \"Codes/Lottery.sol\":373:509  function getBalance() public view returns (uint){... */\n    tag_15:\n        /* \"Codes/Lottery.sol\":416:420  uint */\n      0x00\n        /* \"Codes/Lottery.sol\":454:461  manager */\n      0x00\n      0x00\n      swap1\n      sload\n      swap1\n      0x0100\n      exp\n      swap1\n      div\n      0xffffffffffffffffffffffffffffffffffffffff\n      and\n        /* \"Codes/Lottery.sol\":440:461  msg.sender == manager */\n      0xffffffffffffffffffffffffffffffffffffffff\n      and\n        /* \"Codes/Lottery.sol\":440:450  msg.sender */\n      caller\n        /* \"Codes/Lottery.sol\":440:461  msg.sender == manager */\n      0xffffffffffffffffffffffffffffffffffffffff\n      and\n      eq\n        /* \"Codes/Lottery.sol\":432:462  require(msg.sender == manager) */\n      tag_43\n      jumpi\n      revert(0x00, 0x00)\n    tag_43:\n        /* \"Codes/Lottery.sol\":480:501  address(this).balance */\n      selfbalance\n        /* \"Codes/Lottery.sol\":473:501  return address(this).balance */\n      swap1\n      pop\n        /* \"Codes/Lottery.sol\":373:509  function getBalance() public view returns (uint){... */\n      swap1\n      jump\t// out\n        /* \"Codes/Lottery.sol\":689:1057  function selectWinner() public {... */\n    tag_20:\n        /* \"Codes/Lottery.sol\":753:760  manager */\n      0x00\n      0x00\n      swap1\n      sload\n      swap1\n      0x0100\n      exp\n      swap1\n      div\n      0xffffffffffffffffffffffffffffffffffffffff\n      and\n        /* \"Codes/Lottery.sol\":739:760  msg.sender == manager */\n      0xffffffffffffffffffffffffffffffffffffffff\n      and\n        /* \"Codes/Lottery.sol\":739:749  msg.sender */\n      caller\n        /* \"Codes/Lottery.sol\":739:760  msg.sender == manager */\n      0xffffffffffffffffffffffffffffffffffffffff\n      and\n      eq\n        /* \"Codes/Lottery.sol\":731:761  require(msg.sender == manager) */\n      tag_45\n      jumpi\n      revert(0x00, 0x00)\n    tag_45:\n        /* \"Codes/Lottery.sol\":803:804  3 */\n      0x03\n        /* \"Codes/Lottery.sol\":780:792  participants */\n      0x01\n        /* \"Codes/Lottery.sol\":780:799  participants.length */\n      dup1\n      sload\n      swap1\n      pop\n        /* \"Codes/Lottery.sol\":780:804  participants.length >= 3 */\n      lt\n      iszero\n        /* \"Codes/Lottery.sol\":772:805  require(participants.length >= 3) */\n      tag_46\n      jumpi\n      revert(0x00, 0x00)\n    tag_46:\n        /* \"Codes/Lottery.sol\":818:824  uint r */\n      0x00\n        /* \"Codes/Lottery.sol\":827:835  random() */\n      tag_47\n        /* \"Codes/Lottery.sol\":827:833  random */\n      tag_35\n        /* \"Codes/Lottery.sol\":827:835  random() */\n      jump\t// in\n    tag_47:\n        /* \"Codes/Lottery.sol\":818:835  uint r = random() */\n      swap1\n      pop\n        /* \"Codes/Lottery.sol\":846:856  uint index */\n      0x00\n        /* \"Codes/Lottery.sol\":863:875  participants */\n      0x01\n        /* \"Codes/Lottery.sol\":863:882  participants.length */\n      dup1\n      sload\n      swap1\n      pop\n        /* \"Codes/Lottery.sol\":859:860  r */\n      dup3\n        /* \"Codes/Lottery.sol\":859:882  r % participants.length */\n      tag_48\n      swap2\n      swap1\n      tag_49\n      jump\t// in\n    tag_48:\n        /* \"Codes/Lottery.sol\":846:882  uint index = r % participants.length */\n      swap1\n      pop\n        /* \"Codes/Lottery.sol\":895:917  address payable winner */\n      0x00\n        /* \"Codes/Lottery.sol\":937:949  participants */\n      0x01\n        /* \"Codes/Lottery.sol\":950:955  index */\n      dup3\n        /* \"Codes/Lottery.sol\":937:956  participants[index] */\n      dup2\n      sload\n      dup2\n      lt\n      tag_50\n      jumpi\n      tag_51\n      tag_52\n      jump\t// in\n    tag_51:\n    tag_50:\n      swap1\n      0x00\n      mstore\n      keccak256(0x00, 0x20)\n      add\n      0x00\n      swap1\n      sload\n      swap1\n      0x0100\n      exp\n      swap1\n      div\n      0xffffffffffffffffffffffffffffffffffffffff\n      and\n        /* \"Codes/Lottery.sol\":928:956  winner = participants[index] */\n      swap1\n      pop\n        /* \"Codes/Lottery.sol\":967:973  winner */\n      dup1\n        /* \"Codes/Lottery.sol\":967:982  winner.transfer */\n      0xffffffffffffffffffffffffffffffffffffffff\n      and\n        /* \"Codes/Lottery.sol\":967:996  winner.transfer(getBalance()) */\n      0x08fc\n        /* \"Codes/Lottery.sol\":983:995  getBalance() */\n      tag_54\n        /* \"Codes/Lottery.sol\":983:993  getBalance */\n      tag_15\n        /* \"Codes/Lottery.sol\":983:995  getBalance() */\n      jump\t// in\n    tag_54:\n        /* \"Codes/Lottery.sol\":967:996  winner.transfer(getBalance()) */\n      swap1\n      dup2\n      iszero\n      mul\n      swap1\n      mload(0x40)\n      0x00\n      mload(0x40)\n      dup1\n      dup4\n      sub\n      dup2\n      dup6\n      dup9\n      dup9\n      call\n      swap4\n      pop\n      pop\n      pop\n      pop\n      iszero\n      dup1\n      iszero\n      tag_56\n      jumpi\n      returndatacopy(0x00, 0x00, returndatasize)\n      revert(0x00, returndatasize)\n    tag_56:\n      pop\n        /* \"Codes/Lottery.sol\":1047:1048  0 */\n      0x00\n        /* \"Codes/Lottery.sol\":1024:1049  new address payable [](0) */\n      0xffffffffffffffff\n      dup2\n      gt\n      iszero\n      tag_57\n      jumpi\n      tag_58\n      tag_59\n      jump\t// in\n    tag_58:\n    tag_57:\n      mload(0x40)\n      swap1\n      dup1\n      dup3\n      mstore\n      dup1\n      0x20\n      mul\n      0x20\n      add\n      dup3\n      add\n      0x40\n      mstore\n      dup1\n      iszero\n      tag_60\n      jumpi\n      dup2\n      0x20\n      add\n      0x20\n      dup3\n      mul\n      dup1\n      calldatasize\n      dup4\n      calldatacopy\n      dup1\n      dup3\n      add\n      swap2\n      pop\n      pop\n      swap1\n      pop\n    tag_60:\n      pop\n        /* \"Codes/Lottery.sol\":1009:1021  participants */\n      0x01\n        /* \"Codes/Lottery.sol\":1009:1049  participants = new address payable [](0) */\n      swap1\n      dup1\n      mload\n      swap1\n      0x20\n      add\n      swap1\n      tag_61\n      swap3\n      swap2\n      swap1\n      tag_62\n      jump\t// in\n    tag_61:\n      pop\n        /* \"Codes/Lottery.sol\":720:1057  {... */\n      pop\n      pop\n      pop\n        /* \"Codes/Lottery.sol\":689:1057  function selectWinner() public {... */\n      jump\t// out\n        /* \"Codes/Lottery.sol\":114:151  address payable[] public participants */\n    tag_25:\n      0x01\n      dup2\n      dup2\n      sload\n      dup2\n      lt\n      tag_63\n      jumpi\n      0x00\n      dup1\n      revert\n    tag_63:\n      swap1\n      0x00\n      mstore\n      keccak256(0x00, 0x20)\n      add\n      0x00\n      swap2\n      pop\n      sload\n      swap1\n      0x0100\n      exp\n      swap1\n      div\n      0xffffffffffffffffffffffffffffffffffffffff\n      and\n      dup2\n      jump\t// out\n        /* \"Codes/Lottery.sol\":85:107  address public manager */\n    tag_30:\n      0x00\n      0x00\n      swap1\n      sload\n      swap1\n      0x0100\n      exp\n      swap1\n      div\n      0xffffffffffffffffffffffffffffffffffffffff\n      and\n      dup2\n      jump\t// out\n        /* \"Codes/Lottery.sol\":521:681  function random() public view  returns (uint){... */\n    tag_35:\n        /* \"Codes/Lottery.sol\":561:565  uint */\n      0x00\n        /* \"Codes/Lottery.sol\":616:632  block.prevrandao */\n      prevrandao\n        /* \"Codes/Lottery.sol\":634:649  block.timestamp */\n      timestamp\n        /* \"Codes/Lottery.sol\":651:663  participants */\n      0x01\n        /* \"Codes/Lottery.sol\":651:670  participants.length */\n      dup1\n      sload\n      swap1\n      pop\n        /* \"Codes/Lottery.sol\":599:671  abi.encodePacked(block.prevrandao, block.timestamp, participants.length) */\n      add(0x20, mload(0x40))\n      tag_66\n      swap4\n      swap3\n      swap2\n      swap1\n      tag_67\n      jump\t// in\n    tag_66:\n      mload(0x40)\n      0x20\n      dup2\n      dup4\n      sub\n      sub\n      dup2\n      mstore\n      swap1\n      0x40\n      mstore\n        /* \"Codes/Lottery.sol\":589:672  keccak256(abi.encodePacked(block.prevrandao, block.timestamp, participants.length)) */\n      dup1\n      mload\n      swap1\n      0x20\n      add\n      keccak256\n        /* \"Codes/Lottery.sol\":584:673  uint(keccak256(abi.encodePacked(block.prevrandao, block.timestamp, participants.length))) */\n      0x00\n      shr\n        /* \"Codes/Lottery.sol\":577:673  return uint(keccak256(abi.encodePacked(block.prevrandao, block.timestamp, participants.length))) */\n      swap1\n      pop\n        /* \"Codes/Lottery.sol\":521:681  function random() public view  returns (uint){... */\n      swap1\n      jump\t// out\n        /* \"Codes/Lottery.sol\":1065:1171  function getPlayers() public view returns(address payable[] memory) {... */\n    tag_39:\n        /* \"Codes/Lottery.sol\":1107:1131  address payable[] memory */\n      0x60\n        /* \"Codes/Lottery.sol\":1151:1163  participants */\n      0x01\n        /* \"Codes/Lottery.sol\":1144:1163  return participants */\n      dup1\n      sload\n      dup1\n      0x20\n      mul\n      0x20\n      add\n      mload(0x40)\n      swap1\n      dup2\n      add\n      0x40\n      mstore\n      dup1\n      swap3\n      swap2\n      swap1\n      dup2\n      dup2\n      mstore\n      0x20\n      add\n      dup3\n      dup1\n      sload\n      dup1\n      iszero\n      tag_69\n      jumpi\n      0x20\n      mul\n      dup3\n      add\n      swap2\n      swap1\n      0x00\n      mstore\n      keccak256(0x00, 0x20)\n      swap1\n    tag_70:\n      dup2\n      0x00\n      swap1\n      sload\n      swap1\n      0x0100\n      exp\n      swap1\n      div\n      0xffffffffffffffffffffffffffffffffffffffff\n      and\n      0xffffffffffffffffffffffffffffffffffffffff\n      and\n      dup2\n      mstore\n      0x20\n      add\n      swap1\n      0x01\n      add\n      swap1\n      dup1\n      dup4\n      gt\n      tag_70\n      jumpi\n    tag_69:\n      pop\n      pop\n      pop\n      pop\n      pop\n      swap1\n      pop\n        /* \"Codes/Lottery.sol\":1065:1171  function getPlayers() public view returns(address payable[] memory) {... */\n      swap1\n      jump\t// out\n    tag_62:\n      dup3\n      dup1\n      sload\n      dup3\n      dup3\n      sstore\n      swap1\n      0x00\n      mstore\n      keccak256(0x00, 0x20)\n      swap1\n      dup2\n      add\n      swap3\n      dup3\n      iszero\n      tag_71\n      jumpi\n      swap2\n      0x20\n      mul\n      dup3\n      add\n    tag_72:\n      dup3\n      dup2\n      gt\n      iszero\n      tag_73\n      jumpi\n      dup3\n      mload\n      dup3\n      exp(0x0100, 0x00)\n      dup2\n      sload\n      dup2\n      0xffffffffffffffffffffffffffffffffffffffff\n      mul\n      not\n      and\n      swap1\n      dup4\n      0xffffffffffffffffffffffffffffffffffffffff\n      and\n      mul\n      or\n      swap1\n      sstore\n      pop\n      swap2\n      0x20\n      add\n      swap2\n      swap1\n      0x01\n      add\n      swap1\n      jump(tag_72)\n    tag_73:\n    tag_71:\n      pop\n      swap1\n      pop\n      tag_74\n      swap2\n      swap1\n      tag_75\n      jump\t// in\n    tag_74:\n      pop\n      swap1\n      jump\t// out\n    tag_75:\n    tag_76:\n      dup1\n      dup3\n      gt\n      iszero\n      tag_77\n      jumpi\n      0x00\n      dup2\n      0x00\n      swap1\n      sstore\n      pop\n      0x01\n      add\n      jump(tag_76)\n    tag_77:\n      pop\n      swap1\n      jump\t// out\n        /* \"#utility.yul\":7:84   */\n    tag_78:\n        /* \"#utility.yul\":44:51   */\n      0x00\n        /* \"#utility.yul\":73:78   */\n      dup2\n        /* \"#utility.yul\":62:78   */\n      swap1\n      pop\n        /* \"#utility.yul\":7:84   */\n      swap2\n      swap1\n      pop\n      jump\t// out\n        /* \"#utility.yul\":90:208   */\n    tag_79:\n        /* \"#utility.yul\":177:201   */\n      tag_103\n        /* \"#utility.yul\":195:200   */\n      dup2\n        /* \"#utility.yul\":177:201   */\n      tag_78\n      jump\t// in\n    tag_103:\n        /* \"#utility.yul\":172:175   */\n      dup3\n        /* \"#utility.yul\":165:202   */\n      mstore\n        /* \"#utility.yul\":90:208   */\n      pop\n      pop\n      jump\t// out\n        /* \"#utility.yul\":214:436   */\n    tag_17:\n        /* \"#utility.yul\":307:311   */\n      0x00\n        /* \"#utility.yul\":345:347   */\n      0x20\n        /* \"#utility.yul\":334:343   */\n      dup3\n        /* \"#utility.yul\":330:348   */\n      add\n        /* \"#utility.yul\":322:348   */\n      swap1\n      pop\n        /* \"#utility.yul\":358:429   */\n      tag_105\n        /* \"#utility.yul\":426:427   */\n      0x00\n        /* \"#utility.yul\":415:424   */\n      dup4\n        /* \"#utility.yul\":411:428   */\n      add\n        /* \"#utility.yul\":402:408   */\n      dup5\n        /* \"#utility.yul\":358:429   */\n      tag_79\n      jump\t// in\n    tag_105:\n        /* \"#utility.yul\":214:436   */\n      swap3\n      swap2\n      pop\n      pop\n      jump\t// out\n        /* \"#utility.yul\":523:640   */\n    tag_81:\n        /* \"#utility.yul\":632:633   */\n      0x00\n        /* \"#utility.yul\":629:630   */\n      0x00\n        /* \"#utility.yul\":622:634   */\n      revert\n        /* \"#utility.yul\":769:891   */\n    tag_83:\n        /* \"#utility.yul\":842:866   */\n      tag_110\n        /* \"#utility.yul\":860:865   */\n      dup2\n        /* \"#utility.yul\":842:866   */\n      tag_78\n      jump\t// in\n    tag_110:\n        /* \"#utility.yul\":835:840   */\n      dup2\n        /* \"#utility.yul\":832:867   */\n      eq\n        /* \"#utility.yul\":822:885   */\n      tag_111\n      jumpi\n        /* \"#utility.yul\":881:882   */\n      0x00\n        /* \"#utility.yul\":878:879   */\n      0x00\n        /* \"#utility.yul\":871:883   */\n      revert\n        /* \"#utility.yul\":822:885   */\n    tag_111:\n        /* \"#utility.yul\":769:891   */\n      pop\n      jump\t// out\n        /* \"#utility.yul\":897:1036   */\n    tag_84:\n        /* \"#utility.yul\":943:948   */\n      0x00\n        /* \"#utility.yul\":981:987   */\n      dup2\n        /* \"#utility.yul\":968:988   */\n      calldataload\n        /* \"#utility.yul\":959:988   */\n      swap1\n      pop\n        /* \"#utility.yul\":997:1030   */\n      tag_113\n        /* \"#utility.yul\":1024:1029   */\n      dup2\n        /* \"#utility.yul\":997:1030   */\n      tag_83\n      jump\t// in\n    tag_113:\n        /* \"#utility.yul\":897:1036   */\n      swap3\n      swap2\n      pop\n      pop\n      jump\t// out\n        /* \"#utility.yul\":1042:1371   */\n    tag_24:\n        /* \"#utility.yul\":1101:1107   */\n      0x00\n        /* \"#utility.yul\":1150:1152   */\n      0x20\n        /* \"#utility.yul\":1138:1147   */\n      dup3\n        /* \"#utility.yul\":1129:1136   */\n      dup5\n        /* \"#utility.yul\":1125:1148   */\n      sub\n        /* \"#utility.yul\":1121:1153   */\n      slt\n        /* \"#utility.yul\":1118:1237   */\n      iszero\n      tag_115\n      jumpi\n        /* \"#utility.yul\":1156:1235   */\n      tag_116\n      tag_81\n      jump\t// in\n    tag_116:\n        /* \"#utility.yul\":1118:1237   */\n    tag_115:\n        /* \"#utility.yul\":1276:1277   */\n      0x00\n        /* \"#utility.yul\":1301:1354   */\n      tag_117\n        /* \"#utility.yul\":1346:1353   */\n      dup5\n        /* \"#utility.yul\":1337:1343   */\n      dup3\n        /* \"#utility.yul\":1326:1335   */\n      dup6\n        /* \"#utility.yul\":1322:1344   */\n      add\n        /* \"#utility.yul\":1301:1354   */\n      tag_84\n      jump\t// in\n    tag_117:\n        /* \"#utility.yul\":1291:1354   */\n      swap2\n      pop\n        /* \"#utility.yul\":1247:1364   */\n      pop\n        /* \"#utility.yul\":1042:1371   */\n      swap3\n      swap2\n      pop\n      pop\n      jump\t// out\n        /* \"#utility.yul\":1377:1503   */\n    tag_85:\n        /* \"#utility.yul\":1414:1421   */\n      0x00\n        /* \"#utility.yul\":1454:1496   */\n      0xffffffffffffffffffffffffffffffffffffffff\n        /* \"#utility.yul\":1447:1452   */\n      dup3\n        /* \"#utility.yul\":1443:1497   */\n      and\n        /* \"#utility.yul\":1432:1497   */\n      swap1\n      pop\n        /* \"#utility.yul\":1377:1503   */\n      swap2\n      swap1\n      pop\n      jump\t// out\n        /* \"#utility.yul\":1509:1613   */\n    tag_86:\n        /* \"#utility.yul\":1554:1561   */\n      0x00\n        /* \"#utility.yul\":1583:1607   */\n      tag_120\n        /* \"#utility.yul\":1601:1606   */\n      dup3\n        /* \"#utility.yul\":1583:1607   */\n      tag_85\n      jump\t// in\n    tag_120:\n        /* \"#utility.yul\":1572:1607   */\n      swap1\n      pop\n        /* \"#utility.yul\":1509:1613   */\n      swap2\n      swap1\n      pop\n      jump\t// out\n        /* \"#utility.yul\":1619:1761   */\n    tag_87:\n        /* \"#utility.yul\":1722:1754   */\n      tag_122\n        /* \"#utility.yul\":1748:1753   */\n      dup2\n        /* \"#utility.yul\":1722:1754   */\n      tag_86\n      jump\t// in\n    tag_122:\n        /* \"#utility.yul\":1717:1720   */\n      dup3\n        /* \"#utility.yul\":1710:1755   */\n      mstore\n        /* \"#utility.yul\":1619:1761   */\n      pop\n      pop\n      jump\t// out\n        /* \"#utility.yul\":1767:2021   */\n    tag_27:\n        /* \"#utility.yul\":1876:1880   */\n      0x00\n        /* \"#utility.yul\":1914:1916   */\n      0x20\n        /* \"#utility.yul\":1903:1912   */\n      dup3\n        /* \"#utility.yul\":1899:1917   */\n      add\n        /* \"#utility.yul\":1891:1917   */\n      swap1\n      pop\n        /* \"#utility.yul\":1927:2014   */\n      tag_124\n        /* \"#utility.yul\":2011:2012   */\n      0x00\n        /* \"#utility.yul\":2000:2009   */\n      dup4\n        /* \"#utility.yul\":1996:2013   */\n      add\n        /* \"#utility.yul\":1987:1993   */\n      dup5\n        /* \"#utility.yul\":1927:2014   */\n      tag_87\n      jump\t// in\n    tag_124:\n        /* \"#utility.yul\":1767:2021   */\n      swap3\n      swap2\n      pop\n      pop\n      jump\t// out\n        /* \"#utility.yul\":2027:2123   */\n    tag_88:\n        /* \"#utility.yul\":2064:2071   */\n      0x00\n        /* \"#utility.yul\":2093:2117   */\n      tag_126\n        /* \"#utility.yul\":2111:2116   */\n      dup3\n        /* \"#utility.yul\":2093:2117   */\n      tag_85\n      jump\t// in\n    tag_126:\n        /* \"#utility.yul\":2082:2117   */\n      swap1\n      pop\n        /* \"#utility.yul\":2027:2123   */\n      swap2\n      swap1\n      pop\n      jump\t// out\n        /* \"#utility.yul\":2129:2247   */\n    tag_89:\n        /* \"#utility.yul\":2216:2240   */\n      tag_128\n        /* \"#utility.yul\":2234:2239   */\n      dup2\n        /* \"#utility.yul\":2216:2240   */\n      tag_88\n      jump\t// in\n    tag_128:\n        /* \"#utility.yul\":2211:2214   */\n      dup3\n        /* \"#utility.yul\":2204:2241   */\n      mstore\n        /* \"#utility.yul\":2129:2247   */\n      pop\n      pop\n      jump\t// out\n        /* \"#utility.yul\":2253:2475   */\n    tag_32:\n        /* \"#utility.yul\":2346:2350   */\n      0x00\n        /* \"#utility.yul\":2384:2386   */\n      0x20\n        /* \"#utility.yul\":2373:2382   */\n      dup3\n        /* \"#utility.yul\":2369:2387   */\n      add\n        /* \"#utility.yul\":2361:2387   */\n      swap1\n      pop\n        /* \"#utility.yul\":2397:2468   */\n      tag_130\n        /* \"#utility.yul\":2465:2466   */\n      0x00\n        /* \"#utility.yul\":2454:2463   */\n      dup4\n        /* \"#utility.yul\":2450:2467   */\n      add\n        /* \"#utility.yul\":2441:2447   */\n      dup5\n        /* \"#utility.yul\":2397:2468   */\n      tag_89\n      jump\t// in\n    tag_130:\n        /* \"#utility.yul\":2253:2475   */\n      swap3\n      swap2\n      pop\n      pop\n      jump\t// out\n        /* \"#utility.yul\":2481:2603   */\n    tag_90:\n        /* \"#utility.yul\":2556:2562   */\n      0x00\n        /* \"#utility.yul\":2590:2595   */\n      dup2\n        /* \"#utility.yul\":2584:2596   */\n      mload\n        /* \"#utility.yul\":2574:2596   */\n      swap1\n      pop\n        /* \"#utility.yul\":2481:2603   */\n      swap2\n      swap1\n      pop\n      jump\t// out\n        /* \"#utility.yul\":2609:2801   */\n    tag_91:\n        /* \"#utility.yul\":2716:2727   */\n      0x00\n        /* \"#utility.yul\":2750:2756   */\n      dup3\n        /* \"#utility.yul\":2745:2748   */\n      dup3\n        /* \"#utility.yul\":2738:2757   */\n      mstore\n        /* \"#utility.yul\":2790:2794   */\n      0x20\n        /* \"#utility.yul\":2785:2788   */\n      dup3\n        /* \"#utility.yul\":2781:2795   */\n      add\n        /* \"#utility.yul\":2766:2795   */\n      swap1\n      pop\n        /* \"#utility.yul\":2609:2801   */\n      swap3\n      swap2\n      pop\n      pop\n      jump\t// out\n        /* \"#utility.yul\":2807:2947   */\n    tag_92:\n        /* \"#utility.yul\":2882:2886   */\n      0x00\n        /* \"#utility.yul\":2905:2908   */\n      dup2\n        /* \"#utility.yul\":2897:2908   */\n      swap1\n      pop\n        /* \"#utility.yul\":2935:2939   */\n      0x20\n        /* \"#utility.yul\":2930:2933   */\n      dup3\n        /* \"#utility.yul\":2926:2940   */\n      add\n        /* \"#utility.yul\":2918:2940   */\n      swap1\n      pop\n        /* \"#utility.yul\":2807:2947   */\n      swap2\n      swap1\n      pop\n      jump\t// out\n        /* \"#utility.yul\":2953:3085   */\n    tag_93:\n        /* \"#utility.yul\":3046:3078   */\n      tag_135\n        /* \"#utility.yul\":3072:3077   */\n      dup2\n        /* \"#utility.yul\":3046:3078   */\n      tag_86\n      jump\t// in\n    tag_135:\n        /* \"#utility.yul\":3041:3044   */\n      dup3\n        /* \"#utility.yul\":3034:3079   */\n      mstore\n        /* \"#utility.yul\":2953:3085   */\n      pop\n      pop\n      jump\t// out\n        /* \"#utility.yul\":3091:3302   */\n    tag_94:\n        /* \"#utility.yul\":3176:3186   */\n      0x00\n        /* \"#utility.yul\":3197:3259   */\n      tag_137\n        /* \"#utility.yul\":3255:3258   */\n      dup4\n        /* \"#utility.yul\":3247:3253   */\n      dup4\n        /* \"#utility.yul\":3197:3259   */\n      tag_93\n      jump\t// in\n    tag_137:\n        /* \"#utility.yul\":3291:3295   */\n      0x20\n        /* \"#utility.yul\":3286:3289   */\n      dup4\n        /* \"#utility.yul\":3282:3296   */\n      add\n        /* \"#utility.yul\":3268:3296   */\n      swap1\n      pop\n        /* \"#utility.yul\":3091:3302   */\n      swap3\n      swap2\n      pop\n      pop\n      jump\t// out\n        /* \"#utility.yul\":3308:3429   */\n    tag_95:\n        /* \"#utility.yul\":3386:3390   */\n      0x00\n        /* \"#utility.yul\":3418:3422   */\n      0x20\n        /* \"#utility.yul\":3413:3416   */\n      dup3\n        /* \"#utility.yul\":3409:3423   */\n      add\n        /* \"#utility.yul\":3401:3423   */\n      swap1\n      pop\n        /* \"#utility.yul\":3308:3429   */\n      swap2\n      swap1\n      pop\n      jump\t// out\n        /* \"#utility.yul\":3481:4277   */\n    tag_96:\n        /* \"#utility.yul\":3616:3619   */\n      0x00\n        /* \"#utility.yul\":3645:3707   */\n      tag_140\n        /* \"#utility.yul\":3701:3706   */\n      dup3\n        /* \"#utility.yul\":3645:3707   */\n      tag_90\n      jump\t// in\n    tag_140:\n        /* \"#utility.yul\":3723:3817   */\n      tag_141\n        /* \"#utility.yul\":3810:3816   */\n      dup2\n        /* \"#utility.yul\":3805:3808   */\n      dup6\n        /* \"#utility.yul\":3723:3817   */\n      tag_91\n      jump\t// in\n    tag_141:\n        /* \"#utility.yul\":3716:3817   */\n      swap4\n      pop\n        /* \"#utility.yul\":3841:3905   */\n      tag_142\n        /* \"#utility.yul\":3899:3904   */\n      dup4\n        /* \"#utility.yul\":3841:3905   */\n      tag_92\n      jump\t// in\n    tag_142:\n        /* \"#utility.yul\":3928:3935   */\n      dup1\n        /* \"#utility.yul\":3959:3960   */\n      0x00\n        /* \"#utility.yul\":3944:4252   */\n    tag_143:\n        /* \"#utility.yul\":3969:3975   */\n      dup4\n        /* \"#utility.yul\":3966:3967   */\n      dup2\n        /* \"#utility.yul\":3963:3976   */\n      lt\n        /* \"#utility.yul\":3944:4252   */\n      iszero\n      tag_145\n      jumpi\n        /* \"#utility.yul\":4045:4051   */\n      dup2\n        /* \"#utility.yul\":4039:4052   */\n      mload\n        /* \"#utility.yul\":4072:4151   */\n      tag_146\n        /* \"#utility.yul\":4147:4150   */\n      dup9\n        /* \"#utility.yul\":4132:4145   */\n      dup3\n        /* \"#utility.yul\":4072:4151   */\n      tag_94\n      jump\t// in\n    tag_146:\n        /* \"#utility.yul\":4065:4151   */\n      swap8\n      pop\n        /* \"#utility.yul\":4174:4242   */\n      tag_147\n        /* \"#utility.yul\":4235:4241   */\n      dup4\n        /* \"#utility.yul\":4174:4242   */\n      tag_95\n      jump\t// in\n    tag_147:\n        /* \"#utility.yul\":4164:4242   */\n      swap3\n      pop\n        /* \"#utility.yul\":4004:4252   */\n      pop\n        /* \"#utility.yul\":3991:3992   */\n      0x01\n        /* \"#utility.yul\":3988:3989   */\n      dup2\n        /* \"#utility.yul\":3984:3993   */\n      add\n        /* \"#utility.yul\":3979:3993   */\n      swap1\n      pop\n        /* \"#utility.yul\":3944:4252   */\n      jump(tag_143)\n    tag_145:\n        /* \"#utility.yul\":3948:3962   */\n      pop\n        /* \"#utility.yul\":4268:4271   */\n      dup6\n        /* \"#utility.yul\":4261:4271   */\n      swap4\n      pop\n        /* \"#utility.yul\":3621:4277   */\n      pop\n      pop\n      pop\n        /* \"#utility.yul\":3481:4277   */\n      swap3\n      swap2\n      pop\n      pop\n      jump\t// out\n        /* \"#utility.yul\":4283:4688   */\n    tag_41:\n        /* \"#utility.yul\":4442:4446   */\n      0x00\n        /* \"#utility.yul\":4480:4482   */\n      0x20\n        /* \"#utility.yul\":4469:4478   */\n      dup3\n        /* \"#utility.yul\":4465:4483   */\n      add\n        /* \"#utility.yul\":4457:4483   */\n      swap1\n      pop\n        /* \"#utility.yul\":4529:4538   */\n      dup2\n        /* \"#utility.yul\":4523:4527   */\n      dup2\n        /* \"#utility.yul\":4519:4539   */\n      sub\n        /* \"#utility.yul\":4515:4516   */\n      0x00\n        /* \"#utility.yul\":4504:4513   */\n      dup4\n        /* \"#utility.yul\":4500:4517   */\n      add\n        /* \"#utility.yul\":4493:4540   */\n      mstore\n        /* \"#utility.yul\":4557:4681   */\n      tag_149\n        /* \"#utility.yul\":4676:4680   */\n      dup2\n        /* \"#utility.yul\":4667:4673   */\n      dup5\n        /* \"#utility.yul\":4557:4681   */\n      tag_96\n      jump\t// in\n    tag_149:\n        /* \"#utility.yul\":4549:4681   */\n      swap1\n      pop\n        /* \"#utility.yul\":4283:4688   */\n      swap3\n      swap2\n      pop\n      pop\n      jump\t// out\n        /* \"#utility.yul\":4694:4874   */\n    tag_97:\n        /* \"#utility.yul\":4742:4819   */\n      0x4e487b7100000000000000000000000000000000000000000000000000000000\n        /* \"#utility.yul\":4739:4740   */\n      0x00\n        /* \"#utility.yul\":4732:4820   */\n      mstore\n        /* \"#utility.yul\":4839:4843   */\n      0x12\n        /* \"#utility.yul\":4836:4837   */\n      0x04\n        /* \"#utility.yul\":4829:4844   */\n      mstore\n        /* \"#utility.yul\":4863:4867   */\n      0x24\n        /* \"#utility.yul\":4860:4861   */\n      0x00\n        /* \"#utility.yul\":4853:4868   */\n      revert\n        /* \"#utility.yul\":4880:5056   */\n    tag_49:\n        /* \"#utility.yul\":4912:4913   */\n      0x00\n        /* \"#utility.yul\":4929:4949   */\n      tag_152\n        /* \"#utility.yul\":4947:4948   */\n      dup3\n        /* \"#utility.yul\":4929:4949   */\n      tag_78\n      jump\t// in\n    tag_152:\n        /* \"#utility.yul\":4924:4949   */\n      swap2\n      pop\n        /* \"#utility.yul\":4963:4983   */\n      tag_153\n        /* \"#utility.yul\":4981:4982   */\n      dup4\n        /* \"#utility.yul\":4963:4983   */\n      tag_78\n      jump\t// in\n    tag_153:\n        /* \"#utility.yul\":4958:4983   */\n      swap3\n      pop\n        /* \"#utility.yul\":5002:5003   */\n      dup3\n        /* \"#utility.yul\":4992:5027   */\n      tag_154\n      jumpi\n        /* \"#utility.yul\":5007:5025   */\n      tag_155\n      tag_97\n      jump\t// in\n    tag_155:\n        /* \"#utility.yul\":4992:5027   */\n    tag_154:\n        /* \"#utility.yul\":5048:5049   */\n      dup3\n        /* \"#utility.yul\":5045:5046   */\n      dup3\n        /* \"#utility.yul\":5041:5050   */\n      mod\n        /* \"#utility.yul\":5036:5050   */\n      swap1\n      pop\n        /* \"#utility.yul\":4880:5056   */\n      swap3\n      swap2\n      pop\n      pop\n      jump\t// out\n        /* \"#utility.yul\":5062:5242   */\n    tag_52:\n        /* \"#utility.yul\":5110:5187   */\n      0x4e487b7100000000000000000000000000000000000000000000000000000000\n        /* \"#utility.yul\":5107:5108   */\n      0x00\n        /* \"#utility.yul\":5100:5188   */\n      mstore\n        /* \"#utility.yul\":5207:5211   */\n      0x32\n        /* \"#utility.yul\":5204:5205   */\n      0x04\n        /* \"#utility.yul\":5197:5212   */\n      mstore\n        /* \"#utility.yul\":5231:5235   */\n      0x24\n        /* \"#utility.yul\":5228:5229   */\n      0x00\n        /* \"#utility.yul\":5221:5236   */\n      revert\n        /* \"#utility.yul\":5248:5428   */\n    tag_59:\n        /* \"#utility.yul\":5296:5373   */\n      0x4e487b7100000000000000000000000000000000000000000000000000000000\n        /* \"#utility.yul\":5293:5294   */\n      0x00\n        /* \"#utility.yul\":5286:5374   */\n      mstore\n        /* \"#utility.yul\":5393:5397   */\n      0x41\n        /* \"#utility.yul\":5390:5391   */\n      0x04\n        /* \"#utility.yul\":5383:5398   */\n      mstore\n        /* \"#utility.yul\":5417:5421   */\n      0x24\n        /* \"#utility.yul\":5414:5415   */\n      0x00\n        /* \"#utility.yul\":5407:5422   */\n      revert\n        /* \"#utility.yul\":5434:5513   */\n    tag_98:\n        /* \"#utility.yul\":5473:5480   */\n      0x00\n        /* \"#utility.yul\":5502:5507   */\n      dup2\n        /* \"#utility.yul\":5491:5507   */\n      swap1\n      pop\n        /* \"#utility.yul\":5434:5513   */\n      swap2\n      swap1\n      pop\n      jump\t// out\n        /* \"#utility.yul\":5519:5676   */\n    tag_99:\n        /* \"#utility.yul\":5624:5669   */\n      tag_160\n        /* \"#utility.yul\":5644:5668   */\n      tag_161\n        /* \"#utility.yul\":5662:5667   */\n      dup3\n        /* \"#utility.yul\":5644:5668   */\n      tag_78\n      jump\t// in\n    tag_161:\n        /* \"#utility.yul\":5624:5669   */\n      tag_98\n      jump\t// in\n    tag_160:\n        /* \"#utility.yul\":5619:5622   */\n      dup3\n        /* \"#utility.yul\":5612:5670   */\n      mstore\n        /* \"#utility.yul\":5519:5676   */\n      pop\n      pop\n      jump\t// out\n        /* \"#utility.yul\":5682:6220   */\n    tag_67:\n        /* \"#utility.yul\":5850:5853   */\n      0x00\n        /* \"#utility.yul\":5865:5940   */\n      tag_163\n        /* \"#utility.yul\":5936:5939   */\n      dup3\n        /* \"#utility.yul\":5927:5933   */\n      dup7\n        /* \"#utility.yul\":5865:5940   */\n      tag_99\n      jump\t// in\n    tag_163:\n        /* \"#utility.yul\":5965:5967   */\n      0x20\n        /* \"#utility.yul\":5960:5963   */\n      dup3\n        /* \"#utility.yul\":5956:5968   */\n      add\n        /* \"#utility.yul\":5949:5968   */\n      swap2\n      pop\n        /* \"#utility.yul\":5978:6053   */\n      tag_164\n        /* \"#utility.yul\":6049:6052   */\n      dup3\n        /* \"#utility.yul\":6040:6046   */\n      dup6\n        /* \"#utility.yul\":5978:6053   */\n      tag_99\n      jump\t// in\n    tag_164:\n        /* \"#utility.yul\":6078:6080   */\n      0x20\n        /* \"#utility.yul\":6073:6076   */\n      dup3\n        /* \"#utility.yul\":6069:6081   */\n      add\n        /* \"#utility.yul\":6062:6081   */\n      swap2\n      pop\n        /* \"#utility.yul\":6091:6166   */\n      tag_165\n        /* \"#utility.yul\":6162:6165   */\n      dup3\n        /* \"#utility.yul\":6153:6159   */\n      dup5\n        /* \"#utility.yul\":6091:6166   */\n      tag_99\n      jump\t// in\n    tag_165:\n        /* \"#utility.yul\":6191:6193   */\n      0x20\n        /* \"#utility.yul\":6186:6189   */\n      dup3\n        /* \"#utility.yul\":6182:6194   */\n      add\n        /* \"#utility.yul\":6175:6194   */\n      swap2\n      pop\n        /* \"#utility.yul\":6211:6214   */\n      dup2\n        /* \"#utility.yul\":6204:6214   */\n      swap1\n      pop\n        /* \"#utility.yul\":5682:6220   */\n      swap5\n      swap4\n      pop\n      pop\n      pop\n      pop\n      jump\t// out\n\n    auxdata: 0xa2646970667358221220c6a75191c545c0ea3d95d7bee668873a87dfd5e0a4de6eb2868b5e0fa38bffcb64736f6c634300081e0033\n}\n",
				"bytecode": {
					"linkReferences": {},
					"object": "6080604052348015600e575f5ffd5b50335f5f6101000a81548173ffffffffffffffffffffffffffffffffffffffff021916908373ffffffffffffffffffffffffffffffffffffffff1602179055506108a28061005b5f395ff3fe608060405260043610610058575f3560e01c806312065fe0146100d557806333a99e04146100ff57806335c1d34914610115578063481c6a75146101515780635ec01e4d1461017b5780638b5b9ccc146101a5576100d1565b366100d157670de0b6b3a76400003414610070575f5ffd5b600133908060018154018082558091505060019003905f5260205f20015f9091909190916101000a81548173ffffffffffffffffffffffffffffffffffffffff021916908373ffffffffffffffffffffffffffffffffffffffff1602179055005b5f5ffd5b3480156100e0575f5ffd5b506100e96101cf565b6040516100f6919061057f565b60405180910390f35b34801561010a575f5ffd5b5061011361022d565b005b348015610120575f5ffd5b5061013b600480360381019061013691906105c6565b6103a3565b6040516101489190610630565b60405180910390f35b34801561015c575f5ffd5b506101656103de565b6040516101729190610669565b60405180910390f35b348015610186575f5ffd5b5061018f610402565b60405161019c919061057f565b60405180910390f35b3480156101b0575f5ffd5b506101b961043a565b6040516101c69190610739565b60405180910390f35b5f5f5f9054906101000a900473ffffffffffffffffffffffffffffffffffffffff1673ffffffffffffffffffffffffffffffffffffffff163373ffffffffffffffffffffffffffffffffffffffff1614610227575f5ffd5b47905090565b5f5f9054906101000a900473ffffffffffffffffffffffffffffffffffffffff1673ffffffffffffffffffffffffffffffffffffffff163373ffffffffffffffffffffffffffffffffffffffff1614610284575f5ffd5b60036001805490501015610296575f5ffd5b5f61029f610402565b90505f600180549050826102b39190610786565b90505f600182815481106102ca576102c96107b6565b5b905f5260205f20015f9054906101000a900473ffffffffffffffffffffffffffffffffffffffff1690508073ffffffffffffffffffffffffffffffffffffffff166108fc6103166101cf565b90811502906040515f60405180830381858888f1935050505015801561033e573d5f5f3e3d5ffd5b505f67ffffffffffffffff811115610359576103586107e3565b5b6040519080825280602002602001820160405280156103875781602001602082028036833780820191505090505b506001908051906020019061039d9291906104c5565b50505050565b600181815481106103b2575f80fd5b905f5260205f20015f915054906101000a900473ffffffffffffffffffffffffffffffffffffffff1681565b5f5f9054906101000a900473ffffffffffffffffffffffffffffffffffffffff1681565b5f444260018054905060405160200161041d93929190610830565b604051602081830303815290604052805190602001205f1c905090565b606060018054806020026020016040519081016040528092919081815260200182805480156104bb57602002820191905f5260205f20905b815f9054906101000a900473ffffffffffffffffffffffffffffffffffffffff1673ffffffffffffffffffffffffffffffffffffffff1681526020019060010190808311610472575b5050505050905090565b828054828255905f5260205f2090810192821561053b579160200282015b8281111561053a578251825f6101000a81548173ffffffffffffffffffffffffffffffffffffffff021916908373ffffffffffffffffffffffffffffffffffffffff160217905550916020019190600101906104e3565b5b509050610548919061054c565b5090565b5b80821115610563575f815f90555060010161054d565b5090565b5f819050919050565b61057981610567565b82525050565b5f6020820190506105925f830184610570565b92915050565b5f5ffd5b6105a581610567565b81146105af575f5ffd5b50565b5f813590506105c08161059c565b92915050565b5f602082840312156105db576105da610598565b5b5f6105e8848285016105b2565b91505092915050565b5f73ffffffffffffffffffffffffffffffffffffffff82169050919050565b5f61061a826105f1565b9050919050565b61062a81610610565b82525050565b5f6020820190506106435f830184610621565b92915050565b5f610653826105f1565b9050919050565b61066381610649565b82525050565b5f60208201905061067c5f83018461065a565b92915050565b5f81519050919050565b5f82825260208201905092915050565b5f819050602082019050919050565b6106b481610610565b82525050565b5f6106c583836106ab565b60208301905092915050565b5f602082019050919050565b5f6106e782610682565b6106f1818561068c565b93506106fc8361069c565b805f5b8381101561072c57815161071388826106ba565b975061071e836106d1565b9250506001810190506106ff565b5085935050505092915050565b5f6020820190508181035f83015261075181846106dd565b905092915050565b7f4e487b71000000000000000000000000000000000000000000000000000000005f52601260045260245ffd5b5f61079082610567565b915061079b83610567565b9250826107ab576107aa610759565b5b828206905092915050565b7f4e487b71000000000000000000000000000000000000000000000000000000005f52603260045260245ffd5b7f4e487b71000000000000000000000000000000000000000000000000000000005f52604160045260245ffd5b5f819050919050565b61082a61082582610567565b610810565b82525050565b5f61083b8286610819565b60208201915061084b8285610819565b60208201915061085b8284610819565b60208201915081905094935050505056fea2646970667358221220c6a75191c545c0ea3d95d7bee668873a87dfd5e0a4de6eb2868b5e0fa38bffcb64736f6c634300081e0033",
					"opcodes": "PUSH1 0x80 PUSH1 0x40 MSTORE CALLVALUE DUP1 ISZERO PUSH1 0xE JUMPI PUSH0 PUSH0 REVERT JUMPDEST POP CALLER PUSH0 PUSH0 PUSH2 0x100 EXP DUP2 SLOAD DUP2 PUSH20 0xFFFFFFFFFFFFFFFFFFFFFFFFFFFFFFFFFFFFFFFF MUL NOT AND SWAP1 DUP4 PUSH20 0xFFFFFFFFFFFFFFFFFFFFFFFFFFFFFFFFFFFFFFFF AND MUL OR SWAP1 SSTORE POP PUSH2 0x8A2 DUP1 PUSH2 0x5B PUSH0 CODECOPY PUSH0 RETURN INVALID PUSH1 0x80 PUSH1 0x40 MSTORE PUSH1 0x4 CALLDATASIZE LT PUSH2 0x58 JUMPI PUSH0 CALLDATALOAD PUSH1 0xE0 SHR DUP1 PUSH4 0x12065FE0 EQ PUSH2 0xD5 JUMPI DUP1 PUSH4 0x33A99E04 EQ PUSH2 0xFF JUMPI DUP1 PUSH4 0x35C1D349 EQ PUSH2 0x115 JUMPI DUP1 PUSH4 0x481C6A75 EQ PUSH2 0x151 JUMPI DUP1 PUSH4 0x5EC01E4D EQ PUSH2 0x17B JUMPI DUP1 PUSH4 0x8B5B9CCC EQ PUSH2 0x1A5 JUMPI PUSH2 0xD1 JUMP JUMPDEST CALLDATASIZE PUSH2 0xD1 JUMPI PUSH8 0xDE0B6B3A7640000 CALLVALUE EQ PUSH2 0x70 JUMPI PUSH0 PUSH0 REVERT JUMPDEST PUSH1 0x1 CALLER SWAP1 DUP1 PUSH1 0x1 DUP2 SLOAD ADD DUP1 DUP3 SSTORE DUP1 SWAP2 POP POP PUSH1 0x1 SWAP1 SUB SWAP1 PUSH0 MSTORE PUSH1 0x20 PUSH0 KECCAK256 ADD PUSH0 SWAP1 SWAP2 SWAP1 SWAP2 SWAP1 SWAP2 PUSH2 0x100 EXP DUP2 SLOAD DUP2 PUSH20 0xFFFFFFFFFFFFFFFFFFFFFFFFFFFFFFFFFFFFFFFF MUL NOT AND SWAP1 DUP4 PUSH20 0xFFFFFFFFFFFFFFFFFFFFFFFFFFFFFFFFFFFFFFFF AND MUL OR SWAP1 SSTORE STOP JUMPDEST PUSH0 PUSH0 REVERT JUMPDEST CALLVALUE DUP1 ISZERO PUSH2 0xE0 JUMPI PUSH0 PUSH0 REVERT JUMPDEST POP PUSH2 0xE9 PUSH2 0x1CF JUMP JUMPDEST PUSH1 0x40 MLOAD PUSH2 0xF6 SWAP2 SWAP1 PUSH2 0x57F JUMP JUMPDEST PUSH1 0x40 MLOAD DUP1 SWAP2 SUB SWAP1 RETURN JUMPDEST CALLVALUE DUP1 ISZERO PUSH2 0x10A JUMPI PUSH0 PUSH0 REVERT JUMPDEST POP PUSH2 0x113 PUSH2 0x22D JUMP JUMPDEST STOP JUMPDEST CALLVALUE DUP1 ISZERO PUSH2 0x120 JUMPI PUSH0 PUSH0 REVERT JUMPDEST POP PUSH2 0x13B PUSH1 0x4 DUP1 CALLDATASIZE SUB DUP2 ADD SWAP1 PUSH2 0x136 SWAP2 SWAP1 PUSH2 0x5C6 JUMP JUMPDEST PUSH2 0x3A3 JUMP JUMPDEST PUSH1 0x40 MLOAD PUSH2 0x148 SWAP2 SWAP1 PUSH2 0x630 JUMP JUMPDEST PUSH1 0x40 MLOAD DUP1 SWAP2 SUB SWAP1 RETURN JUMPDEST CALLVALUE DUP1 ISZERO PUSH2 0x15C JUMPI PUSH0 PUSH0 REVERT JUMPDEST POP PUSH2 0x165 PUSH2 0x3DE JUMP JUMPDEST PUSH1 0x40 MLOAD PUSH2 0x172 SWAP2 SWAP1 PUSH2 0x669 JUMP JUMPDEST PUSH1 0x40 MLOAD DUP1 SWAP2 SUB SWAP1 RETURN JUMPDEST CALLVALUE DUP1 ISZERO PUSH2 0x186 JUMPI PUSH0 PUSH0 REVERT JUMPDEST POP PUSH2 0x18F PUSH2 0x402 JUMP JUMPDEST PUSH1 0x40 MLOAD PUSH2 0x19C SWAP2 SWAP1 PUSH2 0x57F JUMP JUMPDEST PUSH1 0x40 MLOAD DUP1 SWAP2 SUB SWAP1 RETURN JUMPDEST CALLVALUE DUP1 ISZERO PUSH2 0x1B0 JUMPI PUSH0 PUSH0 REVERT JUMPDEST POP PUSH2 0x1B9 PUSH2 0x43A JUMP JUMPDEST PUSH1 0x40 MLOAD PUSH2 0x1C6 SWAP2 SWAP1 PUSH2 0x739 JUMP JUMPDEST PUSH1 0x40 MLOAD DUP1 SWAP2 SUB SWAP1 RETURN JUMPDEST PUSH0 PUSH0 PUSH0 SWAP1 SLOAD SWAP1 PUSH2 0x100 EXP SWAP1 DIV PUSH20 0xFFFFFFFFFFFFFFFFFFFFFFFFFFFFFFFFFFFFFFFF AND PUSH20 0xFFFFFFFFFFFFFFFFFFFFFFFFFFFFFFFFFFFFFFFF AND CALLER PUSH20 0xFFFFFFFFFFFFFFFFFFFFFFFFFFFFFFFFFFFFFFFF AND EQ PUSH2 0x227 JUMPI PUSH0 PUSH0 REVERT JUMPDEST SELFBALANCE SWAP1 POP SWAP1 JUMP JUMPDEST PUSH0 PUSH0 SWAP1 SLOAD SWAP1 PUSH2 0x100 EXP SWAP1 DIV PUSH20 0xFFFFFFFFFFFFFFFFFFFFFFFFFFFFFFFFFFFFFFFF AND PUSH20 0xFFFFFFFFFFFFFFFFFFFFFFFFFFFFFFFFFFFFFFFF AND CALLER PUSH20 0xFFFFFFFFFFFFFFFFFFFFFFFFFFFFFFFFFFFFFFFF AND EQ PUSH2 0x284 JUMPI PUSH0 PUSH0 REVERT JUMPDEST PUSH1 0x3 PUSH1 0x1 DUP1 SLOAD SWAP1 POP LT ISZERO PUSH2 0x296 JUMPI PUSH0 PUSH0 REVERT JUMPDEST PUSH0 PUSH2 0x29F PUSH2 0x402 JUMP JUMPDEST SWAP1 POP PUSH0 PUSH1 0x1 DUP1 SLOAD SWAP1 POP DUP3 PUSH2 0x2B3 SWAP2 SWAP1 PUSH2 0x786 JUMP JUMPDEST SWAP1 POP PUSH0 PUSH1 0x1 DUP3 DUP2 SLOAD DUP2 LT PUSH2 0x2CA JUMPI PUSH2 0x2C9 PUSH2 0x7B6 JUMP JUMPDEST JUMPDEST SWAP1 PUSH0 MSTORE PUSH1 0x20 PUSH0 KECCAK256 ADD PUSH0 SWAP1 SLOAD SWAP1 PUSH2 0x100 EXP SWAP1 DIV PUSH20 0xFFFFFFFFFFFFFFFFFFFFFFFFFFFFFFFFFFFFFFFF AND SWAP1 POP DUP1 PUSH20 0xFFFFFFFFFFFFFFFFFFFFFFFFFFFFFFFFFFFFFFFF AND PUSH2 0x8FC PUSH2 0x316 PUSH2 0x1CF JUMP JUMPDEST SWAP1 DUP2 ISZERO MUL SWAP1 PUSH1 0x40 MLOAD PUSH0 PUSH1 0x40 MLOAD DUP1 DUP4 SUB DUP2 DUP6 DUP9 DUP9 CALL SWAP4 POP POP POP POP ISZERO DUP1 ISZERO PUSH2 0x33E JUMPI RETURNDATASIZE PUSH0 PUSH0 RETURNDATACOPY RETURNDATASIZE PUSH0 REVERT JUMPDEST POP PUSH0 PUSH8 0xFFFFFFFFFFFFFFFF DUP2 GT ISZERO PUSH2 0x359 JUMPI PUSH2 0x358 PUSH2 0x7E3 JUMP JUMPDEST JUMPDEST PUSH1 0x40 MLOAD SWAP1 DUP1 DUP3 MSTORE DUP1 PUSH1 0x20 MUL PUSH1 0x20 ADD DUP3 ADD PUSH1 0x40 MSTORE DUP1 ISZERO PUSH2 0x387 JUMPI DUP2 PUSH1 0x20 ADD PUSH1 0x20 DUP3 MUL DUP1 CALLDATASIZE DUP4 CALLDATACOPY DUP1 DUP3 ADD SWAP2 POP POP SWAP1 POP JUMPDEST POP PUSH1 0x1 SWAP1 DUP1 MLOAD SWAP1 PUSH1 0x20 ADD SWAP1 PUSH2 0x39D SWAP3 SWAP2 SWAP1 PUSH2 0x4C5 JUMP JUMPDEST POP POP POP POP JUMP JUMPDEST PUSH1 0x1 DUP2 DUP2 SLOAD DUP2 LT PUSH2 0x3B2 JUMPI PUSH0 DUP1 REVERT JUMPDEST SWAP1 PUSH0 MSTORE PUSH1 0x20 PUSH0 KECCAK256 ADD PUSH0 SWAP2 POP SLOAD SWAP1 PUSH2 0x100 EXP SWAP1 DIV PUSH20 0xFFFFFFFFFFFFFFFFFFFFFFFFFFFFFFFFFFFFFFFF AND DUP2 JUMP JUMPDEST PUSH0 PUSH0 SWAP1 SLOAD SWAP1 PUSH2 0x100 EXP SWAP1 DIV PUSH20 0xFFFFFFFFFFFFFFFFFFFFFFFFFFFFFFFFFFFFFFFF AND DUP2 JUMP JUMPDEST PUSH0 PREVRANDAO TIMESTAMP PUSH1 0x1 DUP1 SLOAD SWAP1 POP PUSH1 0x40 MLOAD PUSH1 0x20 ADD PUSH2 0x41D SWAP4 SWAP3 SWAP2 SWAP1 PUSH2 0x830 JUMP JUMPDEST PUSH1 0x40 MLOAD PUSH1 0x20 DUP2 DUP4 SUB SUB DUP2 MSTORE SWAP1 PUSH1 0x40 MSTORE DUP1 MLOAD SWAP1 PUSH1 0x20 ADD KECCAK256 PUSH0 SHR SWAP1 POP SWAP1 JUMP JUMPDEST PUSH1 0x60 PUSH1 0x1 DUP1 SLOAD DUP1 PUSH1 0x20 MUL PUSH1 0x20 ADD PUSH1 0x40 MLOAD SWAP1 DUP2 ADD PUSH1 0x40 MSTORE DUP1 SWAP3 SWAP2 SWAP1 DUP2 DUP2 MSTORE PUSH1 0x20 ADD DUP3 DUP1 SLOAD DUP1 ISZERO PUSH2 0x4BB JUMPI PUSH1 0x20 MUL DUP3 ADD SWAP2 SWAP1 PUSH0 MSTORE PUSH1 0x20 PUSH0 KECCAK256 SWAP1 JUMPDEST DUP2 PUSH0 SWAP1 SLOAD SWAP1 PUSH2 0x100 EXP SWAP1 DIV PUSH20 0xFFFFFFFFFFFFFFFFFFFFFFFFFFFFFFFFFFFFFFFF AND PUSH20 0xFFFFFFFFFFFFFFFFFFFFFFFFFFFFFFFFFFFFFFFF AND DUP2 MSTORE PUSH1 0x20 ADD SWAP1 PUSH1 0x1 ADD SWAP1 DUP1 DUP4 GT PUSH2 0x472 JUMPI JUMPDEST POP POP POP POP POP SWAP1 POP SWAP1 JUMP JUMPDEST DUP3 DUP1 SLOAD DUP3 DUP3 SSTORE SWAP1 PUSH0 MSTORE PUSH1 0x20 PUSH0 KECCAK256 SWAP1 DUP2 ADD SWAP3 DUP3 ISZERO PUSH2 0x53B JUMPI SWAP2 PUSH1 0x20 MUL DUP3 ADD JUMPDEST DUP3 DUP2 GT ISZERO PUSH2 0x53A JUMPI DUP3 MLOAD DUP3 PUSH0 PUSH2 0x100 EXP DUP2 SLOAD DUP2 PUSH20 0xFFFFFFFFFFFFFFFFFFFFFFFFFFFFFFFFFFFFFFFF MUL NOT AND SWAP1 DUP4 PUSH20 0xFFFFFFFFFFFFFFFFFFFFFFFFFFFFFFFFFFFFFFFF AND MUL OR SWAP1 SSTORE POP SWAP2 PUSH1 0x20 ADD SWAP2 SWAP1 PUSH1 0x1 ADD SWAP1 PUSH2 0x4E3 JUMP JUMPDEST JUMPDEST POP SWAP1 POP PUSH2 0x548 SWAP2 SWAP1 PUSH2 0x54C JUMP JUMPDEST POP SWAP1 JUMP JUMPDEST JUMPDEST DUP1 DUP3 GT ISZERO PUSH2 0x563 JUMPI PUSH0 DUP2 PUSH0 SWAP1 SSTORE POP PUSH1 0x1 ADD PUSH2 0x54D JUMP JUMPDEST POP SWAP1 JUMP JUMPDEST PUSH0 DUP2 SWAP1 POP SWAP2 SWAP1 POP JUMP JUMPDEST PUSH2 0x579 DUP2 PUSH2 0x567 JUMP JUMPDEST DUP3 MSTORE POP POP JUMP JUMPDEST PUSH0 PUSH1 0x20 DUP3 ADD SWAP1 POP PUSH2 0x592 PUSH0 DUP4 ADD DUP5 PUSH2 0x570 JUMP JUMPDEST SWAP3 SWAP2 POP POP JUMP JUMPDEST PUSH0 PUSH0 REVERT JUMPDEST PUSH2 0x5A5 DUP2 PUSH2 0x567 JUMP JUMPDEST DUP2 EQ PUSH2 0x5AF JUMPI PUSH0 PUSH0 REVERT JUMPDEST POP JUMP JUMPDEST PUSH0 DUP2 CALLDATALOAD SWAP1 POP PUSH2 0x5C0 DUP2 PUSH2 0x59C JUMP JUMPDEST SWAP3 SWAP2 POP POP JUMP JUMPDEST PUSH0 PUSH1 0x20 DUP3 DUP5 SUB SLT ISZERO PUSH2 0x5DB JUMPI PUSH2 0x5DA PUSH2 0x598 JUMP JUMPDEST JUMPDEST PUSH0 PUSH2 0x5E8 DUP5 DUP3 DUP6 ADD PUSH2 0x5B2 JUMP JUMPDEST SWAP2 POP POP SWAP3 SWAP2 POP POP JUMP JUMPDEST PUSH0 PUSH20 0xFFFFFFFFFFFFFFFFFFFFFFFFFFFFFFFFFFFFFFFF DUP3 AND SWAP1 POP SWAP2 SWAP1 POP JUMP JUMPDEST PUSH0 PUSH2 0x61A DUP3 PUSH2 0x5F1 JUMP JUMPDEST SWAP1 POP SWAP2 SWAP1 POP JUMP JUMPDEST PUSH2 0x62A DUP2 PUSH2 0x610 JUMP JUMPDEST DUP3 MSTORE POP POP JUMP JUMPDEST PUSH0 PUSH1 0x20 DUP3 ADD SWAP1 POP PUSH2 0x643 PUSH0 DUP4 ADD DUP5 PUSH2 0x621 JUMP JUMPDEST SWAP3 SWAP2 POP POP JUMP JUMPDEST PUSH0 PUSH2 0x653 DUP3 PUSH2 0x5F1 JUMP JUMPDEST SWAP1 POP SWAP2 SWAP1 POP JUMP JUMPDEST PUSH2 0x663 DUP2 PUSH2 0x649 JUMP JUMPDEST DUP3 MSTORE POP POP JUMP JUMPDEST PUSH0 PUSH1 0x20 DUP3 ADD SWAP1 POP PUSH2 0x67C PUSH0 DUP4 ADD DUP5 PUSH2 0x65A JUMP JUMPDEST SWAP3 SWAP2 POP POP JUMP JUMPDEST PUSH0 DUP2 MLOAD SWAP1 POP SWAP2 SWAP1 POP JUMP JUMPDEST PUSH0 DUP3 DUP3 MSTORE PUSH1 0x20 DUP3 ADD SWAP1 POP SWAP3 SWAP2 POP POP JUMP JUMPDEST PUSH0 DUP2 SWAP1 POP PUSH1 0x20 DUP3 ADD SWAP1 POP SWAP2 SWAP1 POP JUMP JUMPDEST PUSH2 0x6B4 DUP2 PUSH2 0x610 JUMP JUMPDEST DUP3 MSTORE POP POP JUMP JUMPDEST PUSH0 PUSH2 0x6C5 DUP4 DUP4 PUSH2 0x6AB JUMP JUMPDEST PUSH1 0x20 DUP4 ADD SWAP1 POP SWAP3 SWAP2 POP POP JUMP JUMPDEST PUSH0 PUSH1 0x20 DUP3 ADD SWAP1 POP SWAP2 SWAP1 POP JUMP JUMPDEST PUSH0 PUSH2 0x6E7 DUP3 PUSH2 0x682 JUMP JUMPDEST PUSH2 0x6F1 DUP2 DUP6 PUSH2 0x68C JUMP JUMPDEST SWAP4 POP PUSH2 0x6FC DUP4 PUSH2 0x69C JUMP JUMPDEST DUP1 PUSH0 JUMPDEST DUP4 DUP2 LT ISZERO PUSH2 0x72C JUMPI DUP2 MLOAD PUSH2 0x713 DUP9 DUP3 PUSH2 0x6BA JUMP JUMPDEST SWAP8 POP PUSH2 0x71E DUP4 PUSH2 0x6D1 JUMP JUMPDEST SWAP3 POP POP PUSH1 0x1 DUP2 ADD SWAP1 POP PUSH2 0x6FF JUMP JUMPDEST POP DUP6 SWAP4 POP POP POP POP SWAP3 SWAP2 POP POP JUMP JUMPDEST PUSH0 PUSH1 0x20 DUP3 ADD SWAP1 POP DUP2 DUP2 SUB PUSH0 DUP4 ADD MSTORE PUSH2 0x751 DUP2 DUP5 PUSH2 0x6DD JUMP JUMPDEST SWAP1 POP SWAP3 SWAP2 POP POP JUMP JUMPDEST PUSH32 0x4E487B7100000000000000000000000000000000000000000000000000000000 PUSH0 MSTORE PUSH1 0x12 PUSH1 0x4 MSTORE PUSH1 0x24 PUSH0 REVERT JUMPDEST PUSH0 PUSH2 0x790 DUP3 PUSH2 0x567 JUMP JUMPDEST SWAP2 POP PUSH2 0x79B DUP4 PUSH2 0x567 JUMP JUMPDEST SWAP3 POP DUP3 PUSH2 0x7AB JUMPI PUSH2 0x7AA PUSH2 0x759 JUMP JUMPDEST JUMPDEST DUP3 DUP3 MOD SWAP1 POP SWAP3 SWAP2 POP POP JUMP JUMPDEST PUSH32 0x4E487B7100000000000000000000000000000000000000000000000000000000 PUSH0 MSTORE PUSH1 0x32 PUSH1 0x4 MSTORE PUSH1 0x24 PUSH0 REVERT JUMPDEST PUSH32 0x4E487B7100000000000000000000000000000000000000000000000000000000 PUSH0 MSTORE PUSH1 0x41 PUSH1 0x4 MSTORE PUSH1 0x24 PUSH0 REVERT JUMPDEST PUSH0 DUP2 SWAP1 POP SWAP2 SWAP1 POP JUMP JUMPDEST PUSH2 0x82A PUSH2 0x825 DUP3 PUSH2 0x567 JUMP JUMPDEST PUSH2 0x810 JUMP JUMPDEST DUP3 MSTORE POP POP JUMP JUMPDEST PUSH0 PUSH2 0x83B DUP3 DUP7 PUSH2 0x819 JUMP JUMPDEST PUSH1 0x20 DUP3 ADD SWAP2 POP PUSH2 0x84B DUP3 DUP6 PUSH2 0x819 JUMP JUMPDEST PUSH1 0x20 DUP3 ADD SWAP2 POP PUSH2 0x85B DUP3 DUP5 PUSH2 0x819 JUMP JUMPDEST PUSH1 0x20 DUP3 ADD SWAP2 POP DUP2 SWAP1 POP SWAP5 SWAP4 POP POP POP POP JUMP INVALID LOG2 PUSH5 0x6970667358 0x22 SLT KECCAK256 0xC6 0xA7 MLOAD SWAP2 0xC5 GASLIMIT 0xC0 0xEA RETURNDATASIZE SWAP6 0xD7 0xBE DUPN 0x68 DUP8 GASPRICE DUP8 0xDF 0xD5 RJUMP 0xA4DE PUSH15 0xB2868B5E0FA38BFFCB64736F6C6343 STOP ADDMOD 0x1E STOP CALLER "
				},
				"gasEstimates": {
					"creation": {
						"codeDepositCost": "442000",
						"executionCost": "24742",
						"totalCost": "466742"
					},
					"external": {
						"getBalance()": "2480",
						"getPlayers()": "infinite",
						"manager()": "2551",
						"participants(uint256)": "4966",
						"random()": "infinite",
						"selectWinner()": "infinite"
					}
				},
				"methodIdentifiers": {
					"getBalance()": "12065fe0",
					"getPlayers()": "8b5b9ccc",
					"manager()": "481c6a75",
					"participants(uint256)": "35c1d349",
					"random()": "5ec01e4d",
					"selectWinner()": "33a99e04"
				}
			},
			"storageLayout": {
				"storage": [
					{
						"astId": 3,
						"contract": "Codes/Lottery.sol:Lottery",
						"label": "manager",
						"offset": 0,
						"slot": "0",
						"type": "t_address"
					},
					{
						"astId": 6,
						"contract": "Codes/Lottery.sol:Lottery",
						"label": "participants",
						"offset": 0,
						"slot": "1",
						"type": "t_array(t_address_payable)dyn_storage"
					}
				],
				"types": {
					"t_address": {
						"encoding": "inplace",
						"label": "address",
						"numberOfBytes": "20"
					},
					"t_address_payable": {
						"encoding": "inplace",
						"label": "address payable",
						"numberOfBytes": "20"
					},
					"t_array(t_address_payable)dyn_storage": {
						"base": "t_address_payable",
						"encoding": "dynamic_array",
						"label": "address payable[]",
						"numberOfBytes": "32"
					}
				}
			},
			"userdoc": {
				"kind": "user",
				"methods": {},
				"version": 1
			}
		}
	}
}